{"abi":[{"type":"constructor","inputs":[{"name":"listingContractAddress","type":"address","internalType":"address"}],"stateMutability":"nonpayable"},{"type":"function","name":"activeGrantForListing","inputs":[{"name":"","type":"uint256","internalType":"uint256"}],"outputs":[{"name":"","type":"uint256","internalType":"uint256"}],"stateMutability":"view"},{"type":"function","name":"authoriseContract","inputs":[{"name":"contractAddress","type":"address","internalType":"address"}],"outputs":[],"stateMutability":"nonpayable"},{"type":"function","name":"authorisedContracts","inputs":[{"name":"","type":"address","internalType":"address"}],"outputs":[{"name":"","type":"bool","internalType":"bool"}],"stateMutability":"view"},{"type":"function","name":"clearActiveGrant","inputs":[{"name":"listingId","type":"uint256","internalType":"uint256"}],"outputs":[],"stateMutability":"nonpayable"},{"type":"function","name":"getActiveGrant","inputs":[{"name":"listingId","type":"uint256","internalType":"uint256"}],"outputs":[{"name":"","type":"tuple","internalType":"struct AccessRequest.Request","components":[{"name":"id","type":"uint256","internalType":"uint256"},{"name":"requester","type":"address","internalType":"address"},{"name":"requesterName","type":"string","internalType":"string"},{"name":"listingId","type":"uint256","internalType":"uint256"},{"name":"requestedStart","type":"uint256","internalType":"uint256"},{"name":"requestedEnd","type":"uint256","internalType":"uint256"},{"name":"purpose","type":"string","internalType":"string"},{"name":"status","type":"uint8","internalType":"enum AccessRequest.RequestStatus"},{"name":"rejectionReason","type":"string","internalType":"string"},{"name":"createdAt","type":"uint256","internalType":"uint256"}]}],"stateMutability":"view"},{"type":"function","name":"getRequest","inputs":[{"name":"id","type":"uint256","internalType":"uint256"}],"outputs":[{"name":"","type":"tuple","internalType":"struct AccessRequest.Request","components":[{"name":"id","type":"uint256","internalType":"uint256"},{"name":"requester","type":"address","internalType":"address"},{"name":"requesterName","type":"string","internalType":"string"},{"name":"listingId","type":"uint256","internalType":"uint256"},{"name":"requestedStart","type":"uint256","internalType":"uint256"},{"name":"requestedEnd","type":"uint256","internalType":"uint256"},{"name":"purpose","type":"string","internalType":"string"},{"name":"status","type":"uint8","internalType":"enum AccessRequest.RequestStatus"},{"name":"rejectionReason","type":"string","internalType":"string"},{"name":"createdAt","type":"uint256","internalType":"uint256"}]}],"stateMutability":"view"},{"type":"function","name":"getRequestsByRequester","inputs":[{"name":"requester","type":"address","internalType":"address"}],"outputs":[{"name":"","type":"tuple[]","internalType":"struct AccessRequest.Request[]","components":[{"name":"id","type":"uint256","internalType":"uint256"},{"name":"requester","type":"address","internalType":"address"},{"name":"requesterName","type":"string","internalType":"string"},{"name":"listingId","type":"uint256","internalType":"uint256"},{"name":"requestedStart","type":"uint256","internalType":"uint256"},{"name":"requestedEnd","type":"uint256","internalType":"uint256"},{"name":"purpose","type":"string","internalType":"string"},{"name":"status","type":"uint8","internalType":"enum AccessRequest.RequestStatus"},{"name":"rejectionReason","type":"string","internalType":"string"},{"name":"createdAt","type":"uint256","internalType":"uint256"}]}],"stateMutability":"view"},{"type":"function","name":"getTotalRequests","inputs":[],"outputs":[{"name":"","type":"uint256","internalType":"uint256"}],"stateMutability":"view"},{"type":"function","name":"listingContract","inputs":[],"outputs":[{"name":"","type":"address","internalType":"contract SpectrumListing"}],"stateMutability":"view"},{"type":"function","name":"owner","inputs":[],"outputs":[{"name":"","type":"address","internalType":"address"}],"stateMutability":"view"},{"type":"function","name":"registerSecondary","inputs":[{"name":"operator","type":"address","internalType":"address"},{"name":"name","type":"string","internalType":"string"}],"outputs":[],"stateMutability":"nonpayable"},{"type":"function","name":"registeredSecondary","inputs":[{"name":"","type":"address","internalType":"address"}],"outputs":[{"name":"","type":"bool","internalType":"bool"}],"stateMutability":"view"},{"type":"function","name":"removeSecondary","inputs":[{"name":"operator","type":"address","internalType":"address"}],"outputs":[],"stateMutability":"nonpayable"},{"type":"function","name":"renounceOwnership","inputs":[],"outputs":[],"stateMutability":"nonpayable"},{"type":"function","name":"requests","inputs":[{"name":"","type":"uint256","internalType":"uint256"}],"outputs":[{"name":"id","type":"uint256","internalType":"uint256"},{"name":"requester","type":"address","internalType":"address"},{"name":"requesterName","type":"string","internalType":"string"},{"name":"listingId","type":"uint256","internalType":"uint256"},{"name":"requestedStart","type":"uint256","internalType":"uint256"},{"name":"requestedEnd","type":"uint256","internalType":"uint256"},{"name":"purpose","type":"string","internalType":"string"},{"name":"status","type":"uint8","internalType":"enum AccessRequest.RequestStatus"},{"name":"rejectionReason","type":"string","internalType":"string"},{"name":"createdAt","type":"uint256","internalType":"uint256"}],"stateMutability":"view"},{"type":"function","name":"secondaryNames","inputs":[{"name":"","type":"address","internalType":"address"}],"outputs":[{"name":"","type":"string","internalType":"string"}],"stateMutability":"view"},{"type":"function","name":"submitRequest","inputs":[{"name":"listingId","type":"uint256","internalType":"uint256"},{"name":"requestedStart","type":"uint256","internalType":"uint256"},{"name":"requestedEnd","type":"uint256","internalType":"uint256"},{"name":"purpose","type":"string","internalType":"string"}],"outputs":[{"name":"","type":"uint256","internalType":"uint256"}],"stateMutability":"nonpayable"},{"type":"function","name":"transferOwnership","inputs":[{"name":"newOwner","type":"address","internalType":"address"}],"outputs":[],"stateMutability":"nonpayable"},{"type":"event","name":"ContractAuthorised","inputs":[{"name":"contractAddress","type":"address","indexed":true,"internalType":"address"}],"anonymous":false},{"type":"event","name":"LeaseGranted","inputs":[{"name":"requestId","type":"uint256","indexed":true,"internalType":"uint256"},{"name":"listingId","type":"uint256","indexed":true,"internalType":"uint256"},{"name":"requester","type":"address","indexed":true,"internalType":"address"},{"name":"grantedStart","type":"uint256","indexed":false,"internalType":"uint256"},{"name":"grantedEnd","type":"uint256","indexed":false,"internalType":"uint256"}],"anonymous":false},{"type":"event","name":"OwnershipTransferred","inputs":[{"name":"previousOwner","type":"address","indexed":true,"internalType":"address"},{"name":"newOwner","type":"address","indexed":true,"internalType":"address"}],"anonymous":false},{"type":"event","name":"RequestRejected","inputs":[{"name":"requestId","type":"uint256","indexed":true,"internalType":"uint256"},{"name":"listingId","type":"uint256","indexed":true,"internalType":"uint256"},{"name":"requester","type":"address","indexed":true,"internalType":"address"},{"name":"reason","type":"string","indexed":false,"internalType":"string"}],"anonymous":false},{"type":"event","name":"RequestSubmitted","inputs":[{"name":"requestId","type":"uint256","indexed":true,"internalType":"uint256"},{"name":"requester","type":"address","indexed":true,"internalType":"address"},{"name":"listingId","type":"uint256","indexed":true,"internalType":"uint256"},{"name":"requestedStart","type":"uint256","indexed":false,"internalType":"uint256"},{"name":"requestedEnd","type":"uint256","indexed":false,"internalType":"uint256"}],"anonymous":false},{"type":"event","name":"SecondaryRegistered","inputs":[{"name":"operator","type":"address","indexed":true,"internalType":"address"},{"name":"name","type":"string","indexed":false,"internalType":"string"}],"anonymous":false},{"type":"event","name":"SecondaryRemoved","inputs":[{"name":"operator","type":"address","indexed":true,"internalType":"address"}],"anonymous":false},{"type":"error","name":"OwnableInvalidOwner","inputs":[{"name":"owner","type":"address","internalType":"address"}]},{"type":"error","name":"OwnableUnauthorizedAccount","inputs":[{"name":"account","type":"address","internalType":"address"}]}],"bytecode":{"object":"0x60a03461011c57601f611c2738819003918201601f19168301916001600160401b038311848410176101205780849260209460405283398101031261011c57516001600160a01b0381169081900361011c573315610109575f8054336001600160a01b03198216811783556040519290916001600160a01b0316907f8be0079c531659141344cd1fd0a4f28419497f9722a3daafe3b4186f6b6457e09080a381156100c75750608052604051611af2908161013582396080518181816107a901526115930152f35b62461bcd60e51b815260206004820152601860248201527f496e76616c6964206c697374696e6720636f6e747261637400000000000000006044820152606490fd5b631e4fbdf760e01b5f525f60045260245ffd5b5f80fd5b634e487b7160e01b5f52604160045260245ffdfe60806040526004361015610011575f80fd5b5f3560e01c80630276c08f1461101e5780632aac38c014610e6b57806360f6272c14610e2e5780636173ef2814610bf0578063715018a614610b9957806373117b1414610b2757806381d12c5814610a445780638da5cb5b14610a1d578063a0df23f0146109d1578063bc3f1acb1461092b578063c58343ef14610888578063d4f884d8146107d8578063d516532714610794578063dbd314bb14610757578063e3e190311461072d578063ede74c8514610185578063f0e22d52146101685763f2fde38b146100df575f80fd5b34610164576020366003190112610164576100f8611185565b6101006114f7565b6001600160a01b03168015610151575f80546001600160a01b03198116831782556001600160a01b0316907f8be0079c531659141344cd1fd0a4f28419497f9722a3daafe3b4186f6b6457e09080a3005b631e4fbdf760e01b5f525f60045260245ffd5b5f80fd5b34610164575f366003190112610164576020600154604051908152f35b34610164576080366003190112610164576024356044356004356064356001600160401b038111610164576101be90369060040161119b565b939092335f52600360205260ff60405f205416156106dc5742821115610697578181111561065257841561060d576101f76001546113f3565b9384600155335f52600460205260405f20906040519161021683611200565b868352610229602084019133835261123d565b976040840198895260608401908782526080850187815260a0860190878252610251836114dc565b9261025f604051948561121c565b8084523681880111610164576020815f928e99838801378501015260c0870192835260e08701935f855260209c8d9660026040519861029e818b61121c565b5f8a526101008c01998a526101208c019a428c525f525260405f2099518a5560018a019060018060a01b039051166bffffffffffffffffffffffff60a01b82541617905560028901905180516001600160401b0381116104a7578f61030d8261030786546111c8565b8661147e565b80601f83116001146105a85750819061033b935f9261059d575b50508160011b915f199060031b1c19161790565b90555b51600388015551600487015551600586015560068501905180516001600160401b0381116104a75761037a8161037485546111c8565b8561147e565b8b8c601f8311600114610538575081906103a8935f9261052d5750508160011b915f199060031b1c19161790565b90555b6007840190516103ba816110cb565b6103c3816110cb565b60ff801983541691161790556008830190518051906001600160401b0382116104a7576103f48261037485546111c8565b8990601f83116001146104c65791806104269260099695945f926104bb5750508160011b915f199060031b1c19161790565b90555b51910155600754680100000000000000008110156104a75780600161045192016007556113c7565b81549060031b9086821b915f19901b191617905560405191825284820152827f5e4e2b3038f78154855dafe9e8165a24b5d7ac77ada15afb6083cffc46f680f460403393a461049f81611563565b604051908152f35b634e487b7160e01b5f52604160045260245ffd5b015190508c80610327565b90601f19831691845f528b5f20925f5b8d828210610517575050916001939185600998979694106104ff575b505050811b019055610429565b01515f1960f88460031b161c191690558b80806104f2565b60018596829396860151815501950193016104d6565b015190508d80610327565b9192601f198416855f52835f20935f905b82821061058557505090846001959493921061056d575b505050811b0190556103ab565b01515f1960f88460031b161c191690558c8080610560565b80600186978294978701518155019601940190610549565b015190505f80610327565b9192601f198416855f52835f20935f905b8282106105f55750509084600195949392106105dd575b505050811b01905561033e565b01515f1960f88460031b161c191690555f80806105d0565b806001869782949787015181550196019401906105b9565b60405162461bcd60e51b815260206004820152601760248201527f507572706f73652063616e6e6f7420626520656d7074790000000000000000006044820152606490fd5b60405162461bcd60e51b815260206004820152601760248201527f456e64206d7573742062652061667465722073746172740000000000000000006044820152606490fd5b60405162461bcd60e51b815260206004820152601760248201527f5374617274206d75737420626520696e206675747572650000000000000000006044820152606490fd5b60405162461bcd60e51b815260206004820152602360248201527f4e6f7420612072656769737465726564207365636f6e64617279206f706572616044820152623a37b960e91b6064820152608490fd5b34610164576020366003190112610164576004355f526006602052602060405f2054604051908152f35b34610164576020366003190112610164576001600160a01b03610778611185565b165f526005602052602060ff60405f2054166040519015158152f35b34610164575f366003190112610164576040517f00000000000000000000000000000000000000000000000000000000000000006001600160a01b03168152602090f35b34610164576020366003190112610164576107f1611185565b6107f96114f7565b6001600160a01b03165f8181526003602052604090205460ff161561085257805f52600360205260405f2060ff1981541690557f21e272dc43a4c53bf1218dfc582174fbf30362169e4b517c195f74880d5995c75f80a2005b60405162461bcd60e51b815260206004820152600e60248201526d139bdd081c9959da5cdd195c995960921b6044820152606490fd5b34610164576020366003190112610164576004356108a46112dd565b508015158061091f575b156108e1575f5260026020526108dd6108c960405f2061132a565b6040519182916020835260208301906110e9565b0390f35b60405162461bcd60e51b815260206004820152601660248201527514995c5d595cdd08191bd95cc81b9bdd08195e1a5cdd60521b6044820152606490fd5b506001548111156108ae565b34610164576020366003190112610164575f546001600160a01b0316331480156109bb575b80156109a5575b1561096f576004355f90815260066020526040812055005b60405162461bcd60e51b815260206004820152600e60248201526d139bdd08185d5d1a1bdc9a5cd95960921b6044820152606490fd5b50335f52600560205260ff60405f205416610957565b50335f52600360205260ff60405f205416610950565b34610164576020366003190112610164576001600160a01b036109f2611185565b165f5260046020526108dd610a0960405f2061123d565b6040519182916020835260208301906110a7565b34610164575f366003190112610164575f546040516001600160a01b039091168152602090f35b34610164576020366003190112610164576004355f52600260205260405f20805460018060a01b0360018301541691610b1c610a826002830161123d565b91600381015490610aff6004820154926005830154610aa36006850161123d565b9060ff60078601541695610ae26009610abe6008890161123d565b970154996040519c8d9c8d5260208d015261014060408d01526101408c01906110a7565b9360608b015260808a015260a089015287820360c08901526110a7565b91610b09816110cb565b60e08601528482036101008601526110a7565b906101208301520390f35b3461016457602036600319011261016457610b40611185565b610b486114f7565b6001600160a01b0316610b5c811515611440565b805f52600560205260405f20600160ff198254161790557f16cb637d1e3bbf390e487dacbef06afcb6d8fe2b45835a1827e4482f5f3d4df15f80a2005b34610164575f36600319011261016457610bb16114f7565b5f80546001600160a01b0319811682556001600160a01b03167f8be0079c531659141344cd1fd0a4f28419497f9722a3daafe3b4186f6b6457e08280a3005b3461016457604036600319011261016457610c09611185565b6024356001600160401b03811161016457610c2890369060040161119b565b9091610c326114f7565b6001600160a01b031691610c47831515611440565b8115610df257825f52600360205260ff60405f205416610db857825f52600360205260405f20600160ff19825416179055825f52600460205260405f206001600160401b0383116104a757610ca683610ca083546111c8565b8361147e565b5f601f8411600114610d305791604091610cf885807f668aa8797004fe1c56f4c7492f8ce3d978531540294de7ca2d53802f1e3ef74e97965f91610d25575b508160011b915f199060031b1c19161790565b90555b82825193849260208452816020850152848401375f828201840152601f01601f19168101030190a2005b905084013589610ce5565b601f19841690825f5260205f20915f5b818110610da057509160409391867f668aa8797004fe1c56f4c7492f8ce3d978531540294de7ca2d53802f1e3ef74e97969410610d87575b5050600184811b019055610cfb565b8301355f19600387901b60f8161c191690558680610d78565b91926020600181928689013581550194019201610d40565b60405162461bcd60e51b8152602060048201526012602482015271105b1c9958591e481c9959da5cdd195c995960721b6044820152606490fd5b60405162461bcd60e51b81526020600482015260146024820152734e616d652063616e6e6f7420626520656d70747960601b6044820152606490fd5b34610164576020366003190112610164576001600160a01b03610e4f611185565b165f526003602052602060ff60405f2054166040519015158152f35b3461016457602036600319011261016457610e84611185565b6007545f916001600160a01b0316825b828110610fd45750610ea583611415565b92610eb3604051948561121c565b808452610ec2601f1991611415565b015f5b818110610fbd5750505f905f5b838110610f4057846040518091602082016020835281518091526040830190602060408260051b8601019301915f905b828210610f1157505050500390f35b91936001919395506020610f308192603f198a820301865288516110e9565b9601920192018594939192610f02565b80610f4c6001926113c7565b90549060031b1c5f52600260205282828060a01b038360405f2001541614610f75575b01610ed2565b610f7e816113c7565b90549060031b1c5f526002602052610fb760405f2094610fa6610fa0826113f3565b9661132a565b610fb0828a61142c565b528761142c565b50610f6f565b602090610fc86112dd565b82828801015201610ec5565b610fdd816113c7565b90549060031b1c5f5260026020528160018060a01b03600160405f200154161461100a575b600101610e94565b926110166001916113f3565b939050611002565b34610164576020366003190112610164576110376112dd565b506004355f52600660205260405f20548015611063575f5260026020526108dd6108c960405f2061132a565b606460405162461bcd60e51b815260206004820152602060248201527f4e6f20616374697665206772616e7420666f722074686973206c697374696e676044820152fd5b805180835260209291819084018484015e5f828201840152601f01601f1916010190565b600311156110d557565b634e487b7160e01b5f52602160045260245ffd5b908151815260018060a01b0360208301511660208201526101208061117c611155611125604087015161014060408801526101408701906110a7565b606087015160608701526080870151608087015260a087015160a087015260c087015186820360c08801526110a7565b60e0860151611163816110cb565b60e08601526101008601518582036101008701526110a7565b93015191015290565b600435906001600160a01b038216820361016457565b9181601f84011215610164578235916001600160401b038311610164576020838186019501011161016457565b90600182811c921680156111f6575b60208310146111e257565b634e487b7160e01b5f52602260045260245ffd5b91607f16916111d7565b61014081019081106001600160401b038211176104a757604052565b90601f801991011681019081106001600160401b038211176104a757604052565b9060405191825f825492611250846111c8565b80845293600181169081156112bb5750600114611277575b506112759250038361121c565b565b90505f9291925260205f20905f915b81831061129f575050906020611275928201015f611268565b6020919350806001915483858901015201910190918492611286565b90506020925061127594915060ff191682840152151560051b8201015f611268565b604051906112ea82611200565b5f61012083828152826020820152606060408201528260608201528260808201528260a0820152606060c08201528260e082015260606101008201520152565b9060405161133781611200565b8254815260018301546001600160a01b03166020820152918290610120906009906113646002820161123d565b60408501526003810154606085015260048101546080850152600581015460a08501526113936006820161123d565b60c085015260ff6007820154166113a9816110cb565b60e08501526113ba6008820161123d565b6101008501520154910152565b6007548110156113df5760075f5260205f2001905f90565b634e487b7160e01b5f52603260045260245ffd5b5f1981146114015760010190565b634e487b7160e01b5f52601160045260245ffd5b6001600160401b0381116104a75760051b60200190565b80518210156113df5760209160051b010190565b1561144757565b60405162461bcd60e51b815260206004820152600f60248201526e496e76616c6964206164647265737360881b6044820152606490fd5b919091601f831161148f575b505050565b81831161149b57505050565b5f5260205f206020601f830160051c92106114d4575b81601f9101920160051c03905f5b8281101561148a575f828201556001016114bf565b5f91506114b1565b6001600160401b0381116104a757601f01601f191660200190565b5f546001600160a01b0316330361150a57565b63118cdaa760e01b5f523360045260245ffd5b81601f8201121561016457805190611534826114dc565b92611542604051948561121c565b8284526020838301011161016457815f9260208093018386015e8301015290565b5f81815260026020526040808220600381018054925163083d13a560e11b815260048101939093529092826024817f00000000000000000000000000000000000000000000000000000000000000006001600160a01b03165afa5f928161185a575b506116085750505061127590604051906115e060408361121c565b6016825275131a5cdd1a5b99c8191bd95cc81b9bdd08195e1a5cdd60521b602083015261198e565b610100820151611617816110cb565b611620816110cb565b159260c060a0840151930151931561181c5760048101928354106117c5576005019283541161177357545f52600660205260405f2054806116d8575b505050805f52600260205260405f209060078201600160ff198254161790556003820180545f5260066020528160405f205554907f8416fbf76dd985457f0f5bdc241dddf5cf6d3ca189eb83aa2a9b21a1d1bfe227604060018060a01b03600186015416946005600482015491015482519182526020820152a4565b5f5260026020526116eb60405f2061132a565b905460a0820151119182611762575b5050611708575f808061165c565b6040516112759161171a60608361121c565b603082527f436f6e666c696374696e6720616374697665206c65617365206578697374732060208301526f666f722074686973206c697374696e6760801b604083015261198e565b608091925054910151105f806116fa565b505050611275906040519061178960608361121c565b602482527f52657175657374656420656e642065786365656473206c697374696e672077696020830152636e646f7760e01b604083015261198e565b5050505061127590604051906117dc60608361121c565b602882527f526571756573746564207374617274206973206265666f7265206c697374696e602083015267672077696e646f7760c01b604083015261198e565b50505050611275906040519061183360408361121c565b60158252744c697374696e67206973206e6f742061637469766560581b602083015261198e565b9092503d805f833e61186c818361121c565b810190602081830312610164578051906001600160401b03821161016457016101408183031261016457604051916118a383611200565b8151835260208201516001600160a01b038116810361016457602084015260408201516001600160401b03811161016457816118e091840161151d565b604084015260608201516001600160401b038111610164578161190491840161151d565b606084015260808201516001600160401b038111610164578161192891840161151d565b608084015260a082015160a084015260c082015160c084015260e0820151906001600160401b0382116101645761196091830161151d565b60e083015261010081015190600382101561016457610120916101008401520151610120820152915f6115c5565b805f52600260205260405f209060078201600260ff198254161790556008820183516001600160401b0381116104a7576119d2816119cc84546111c8565b8461147e565b6020601f8211600114611a5c5790806119fe925f91611a5157508160011b915f199060031b1c19161790565b90555b7f7102208b9568c61aa64c114486b9687215c6240f16c17580553fbffa97ed8749611a4c6003840154936001808060a01b0391015416946040519182916020835260208301906110a7565b0390a4565b90508601515f610ce5565b601f19821690835f52805f20915f5b818110611aa457509083600194939210611a8c575b5050811b019055611a01565b8701515f1960f88460031b161c191690555f80611a80565b9192602060018192868c015181550194019201611a6b56fea26469706673582212207d594feaab36165f152e7ac92bbbc029039969cf67dfd564c4057bfb90731fc364736f6c63430008210033","linkReferences":{}},"methodIdentifiers":{"activeGrantForListing(uint256)":"e3e19031","authoriseContract(address)":"73117b14","authorisedContracts(address)":"dbd314bb","clearActiveGrant(uint256)":"bc3f1acb","getActiveGrant(uint256)":"0276c08f","getRequest(uint256)":"c58343ef","getRequestsByRequester(address)":"2aac38c0","getTotalRequests()":"f0e22d52","listingContract()":"d5165327","owner()":"8da5cb5b","registerSecondary(address,string)":"6173ef28","registeredSecondary(address)":"60f6272c","removeSecondary(address)":"d4f884d8","renounceOwnership()":"715018a6","requests(uint256)":"81d12c58","secondaryNames(address)":"a0df23f0","submitRequest(uint256,uint256,uint256,string)":"ede74c85","transferOwnership(address)":"f2fde38b"},"id":20}