{"abi":[{"type":"constructor","inputs":[{"name":"leaseContractAddress","type":"address","internalType":"address"}],"stateMutability":"nonpayable"},{"type":"function","name":"disputeByLease","inputs":[{"name":"","type":"uint256","internalType":"uint256"}],"outputs":[{"name":"","type":"uint256","internalType":"uint256"}],"stateMutability":"view"},{"type":"function","name":"disputes","inputs":[{"name":"","type":"uint256","internalType":"uint256"}],"outputs":[{"name":"id","type":"uint256","internalType":"uint256"},{"name":"leaseId","type":"uint256","internalType":"uint256"},{"name":"listingId","type":"uint256","internalType":"uint256"},{"name":"raiser","type":"address","internalType":"address"},{"name":"raiserName","type":"string","internalType":"string"},{"name":"against","type":"address","internalType":"address"},{"name":"againstName","type":"string","internalType":"string"},{"name":"disputeType","type":"uint8","internalType":"enum DisputeResolution.DisputeType"},{"name":"evidence","type":"string","internalType":"string"},{"name":"status","type":"uint8","internalType":"enum DisputeResolution.DisputeStatus"},{"name":"resolution","type":"uint8","internalType":"enum DisputeResolution.Resolution"},{"name":"resolutionNote","type":"string","internalType":"string"},{"name":"raisedAt","type":"uint256","internalType":"uint256"},{"name":"resolvedAt","type":"uint256","internalType":"uint256"}],"stateMutability":"view"},{"type":"function","name":"escalateToRegulator","inputs":[{"name":"disputeId","type":"uint256","internalType":"uint256"}],"outputs":[],"stateMutability":"nonpayable"},{"type":"function","name":"getDispute","inputs":[{"name":"id","type":"uint256","internalType":"uint256"}],"outputs":[{"name":"","type":"tuple","internalType":"struct DisputeResolution.Dispute","components":[{"name":"id","type":"uint256","internalType":"uint256"},{"name":"leaseId","type":"uint256","internalType":"uint256"},{"name":"listingId","type":"uint256","internalType":"uint256"},{"name":"raiser","type":"address","internalType":"address"},{"name":"raiserName","type":"string","internalType":"string"},{"name":"against","type":"address","internalType":"address"},{"name":"againstName","type":"string","internalType":"string"},{"name":"disputeType","type":"uint8","internalType":"enum DisputeResolution.DisputeType"},{"name":"evidence","type":"string","internalType":"string"},{"name":"status","type":"uint8","internalType":"enum DisputeResolution.DisputeStatus"},{"name":"resolution","type":"uint8","internalType":"enum DisputeResolution.Resolution"},{"name":"resolutionNote","type":"string","internalType":"string"},{"name":"raisedAt","type":"uint256","internalType":"uint256"},{"name":"resolvedAt","type":"uint256","internalType":"uint256"}]}],"stateMutability":"view"},{"type":"function","name":"getDisputeByLease","inputs":[{"name":"leaseId","type":"uint256","internalType":"uint256"}],"outputs":[{"name":"","type":"tuple","internalType":"struct DisputeResolution.Dispute","components":[{"name":"id","type":"uint256","internalType":"uint256"},{"name":"leaseId","type":"uint256","internalType":"uint256"},{"name":"listingId","type":"uint256","internalType":"uint256"},{"name":"raiser","type":"address","internalType":"address"},{"name":"raiserName","type":"string","internalType":"string"},{"name":"against","type":"address","internalType":"address"},{"name":"againstName","type":"string","internalType":"string"},{"name":"disputeType","type":"uint8","internalType":"enum DisputeResolution.DisputeType"},{"name":"evidence","type":"string","internalType":"string"},{"name":"status","type":"uint8","internalType":"enum DisputeResolution.DisputeStatus"},{"name":"resolution","type":"uint8","internalType":"enum DisputeResolution.Resolution"},{"name":"resolutionNote","type":"string","internalType":"string"},{"name":"raisedAt","type":"uint256","internalType":"uint256"},{"name":"resolvedAt","type":"uint256","internalType":"uint256"}]}],"stateMutability":"view"},{"type":"function","name":"getDisputesByRaiser","inputs":[{"name":"raiser","type":"address","internalType":"address"}],"outputs":[{"name":"","type":"tuple[]","internalType":"struct DisputeResolution.Dispute[]","components":[{"name":"id","type":"uint256","internalType":"uint256"},{"name":"leaseId","type":"uint256","internalType":"uint256"},{"name":"listingId","type":"uint256","internalType":"uint256"},{"name":"raiser","type":"address","internalType":"address"},{"name":"raiserName","type":"string","internalType":"string"},{"name":"against","type":"address","internalType":"address"},{"name":"againstName","type":"string","internalType":"string"},{"name":"disputeType","type":"uint8","internalType":"enum DisputeResolution.DisputeType"},{"name":"evidence","type":"string","internalType":"string"},{"name":"status","type":"uint8","internalType":"enum DisputeResolution.DisputeStatus"},{"name":"resolution","type":"uint8","internalType":"enum DisputeResolution.Resolution"},{"name":"resolutionNote","type":"string","internalType":"string"},{"name":"raisedAt","type":"uint256","internalType":"uint256"},{"name":"resolvedAt","type":"uint256","internalType":"uint256"}]}],"stateMutability":"view"},{"type":"function","name":"getEscalatedDisputes","inputs":[],"outputs":[{"name":"","type":"tuple[]","internalType":"struct DisputeResolution.Dispute[]","components":[{"name":"id","type":"uint256","internalType":"uint256"},{"name":"leaseId","type":"uint256","internalType":"uint256"},{"name":"listingId","type":"uint256","internalType":"uint256"},{"name":"raiser","type":"address","internalType":"address"},{"name":"raiserName","type":"string","internalType":"string"},{"name":"against","type":"address","internalType":"address"},{"name":"againstName","type":"string","internalType":"string"},{"name":"disputeType","type":"uint8","internalType":"enum DisputeResolution.DisputeType"},{"name":"evidence","type":"string","internalType":"string"},{"name":"status","type":"uint8","internalType":"enum DisputeResolution.DisputeStatus"},{"name":"resolution","type":"uint8","internalType":"enum DisputeResolution.Resolution"},{"name":"resolutionNote","type":"string","internalType":"string"},{"name":"raisedAt","type":"uint256","internalType":"uint256"},{"name":"resolvedAt","type":"uint256","internalType":"uint256"}]}],"stateMutability":"view"},{"type":"function","name":"getTotalDisputes","inputs":[],"outputs":[{"name":"","type":"uint256","internalType":"uint256"}],"stateMutability":"view"},{"type":"function","name":"leaseContract","inputs":[],"outputs":[{"name":"","type":"address","internalType":"contract LeaseManagement"}],"stateMutability":"view"},{"type":"function","name":"owner","inputs":[],"outputs":[{"name":"","type":"address","internalType":"address"}],"stateMutability":"view"},{"type":"function","name":"raiseDispute","inputs":[{"name":"leaseId","type":"uint256","internalType":"uint256"},{"name":"disputeType","type":"uint8","internalType":"enum DisputeResolution.DisputeType"},{"name":"evidence","type":"string","internalType":"string"}],"outputs":[{"name":"","type":"uint256","internalType":"uint256"}],"stateMutability":"nonpayable"},{"type":"function","name":"regulatorResolve","inputs":[{"name":"disputeId","type":"uint256","internalType":"uint256"},{"name":"resolution","type":"uint8","internalType":"enum DisputeResolution.Resolution"},{"name":"note","type":"string","internalType":"string"}],"outputs":[],"stateMutability":"nonpayable"},{"type":"function","name":"renounceOwnership","inputs":[],"outputs":[],"stateMutability":"nonpayable"},{"type":"function","name":"transferOwnership","inputs":[{"name":"newOwner","type":"address","internalType":"address"}],"outputs":[],"stateMutability":"nonpayable"},{"type":"event","name":"DisputeAutoResolved","inputs":[{"name":"disputeId","type":"uint256","indexed":true,"internalType":"uint256"},{"name":"leaseId","type":"uint256","indexed":true,"internalType":"uint256"},{"name":"resolution","type":"uint8","indexed":false,"internalType":"enum DisputeResolution.Resolution"},{"name":"note","type":"string","indexed":false,"internalType":"string"}],"anonymous":false},{"type":"event","name":"DisputeEscalated","inputs":[{"name":"disputeId","type":"uint256","indexed":true,"internalType":"uint256"},{"name":"leaseId","type":"uint256","indexed":true,"internalType":"uint256"},{"name":"raiser","type":"address","indexed":true,"internalType":"address"}],"anonymous":false},{"type":"event","name":"DisputeRaised","inputs":[{"name":"disputeId","type":"uint256","indexed":true,"internalType":"uint256"},{"name":"leaseId","type":"uint256","indexed":true,"internalType":"uint256"},{"name":"raiser","type":"address","indexed":true,"internalType":"address"},{"name":"disputeType","type":"uint8","indexed":false,"internalType":"enum DisputeResolution.DisputeType"}],"anonymous":false},{"type":"event","name":"DisputeRegulatorResolved","inputs":[{"name":"disputeId","type":"uint256","indexed":true,"internalType":"uint256"},{"name":"leaseId","type":"uint256","indexed":true,"internalType":"uint256"},{"name":"resolution","type":"uint8","indexed":false,"internalType":"enum DisputeResolution.Resolution"},{"name":"note","type":"string","indexed":false,"internalType":"string"}],"anonymous":false},{"type":"event","name":"OwnershipTransferred","inputs":[{"name":"previousOwner","type":"address","indexed":true,"internalType":"address"},{"name":"newOwner","type":"address","indexed":true,"internalType":"address"}],"anonymous":false},{"type":"error","name":"OwnableInvalidOwner","inputs":[{"name":"owner","type":"address","internalType":"address"}]},{"type":"error","name":"OwnableUnauthorizedAccount","inputs":[{"name":"account","type":"address","internalType":"address"}]}],"bytecode":{"object":"0x60a03461012357601f611f5538819003918201601f19168301916001600160401b038311848410176101275780849260209460405283398101031261012357516001600160a01b03811690819003610123573315610110575f8054336001600160a01b03198216811783556040519290916001600160a01b0316907f8be0079c531659141344cd1fd0a4f28419497f9722a3daafe3b4186f6b6457e09080a381156100ce5750608052604051611e19908161013c82396080518181816101b501528181610cd501526115870152f35b62461bcd60e51b815260206004820152601660248201527f496e76616c6964206c6561736520636f6e7472616374000000000000000000006044820152606490fd5b631e4fbdf760e01b5f525f60045260245ffd5b5f80fd5b634e487b7160e01b5f52604160045260245ffdfe60806040526004361015610011575f80fd5b5f5f3560e01c80633b0249d2146114015780633e9869fe1461128d578063543522991461116b578063564a565d14610fd85780635b2a3c3b14610fae57806367113f7814610f21578063715018a614610ec75780638da5cb5b14610ea057806397fbc2fb14610e82578063e3a96cbd14610e1c578063ea7f085614610d04578063ed5c235414610cbf578063efc5f57d146101425763f2fde38b146100b4575f80fd5b3461013f57602036600319011261013f576004356001600160a01b0381169081900361013d576100e2611dbd565b80156101295781546001600160a01b03198116821783556001600160a01b03167f8be0079c531659141344cd1fd0a4f28419497f9722a3daafe3b4186f6b6457e08380a380f35b631e4fbdf760e01b82526004829052602482fd5b505b80fd5b503461013f57606036600319011261013f576004602435101561013f576044356001600160401b03811161013d5761017e903690600401611781565b90918115610c7a57600435815260036020526040812054610c27576040516327d1195f60e21b8152600480359082015281816024817f00000000000000000000000000000000000000000000000000000000000000006001600160a01b03165afa908115610c1c578291610ab4575b5060a0810180516001600160a01b031633148015610a9e575b15610a4a576101608201516003811015610a36576109fb57516001600160a01b0316338114949085156109f5575060608201516001600160a01b0316935b85156109ea576080830151955b156109df5760c0830151955b610268600154611b30565b9586600155604085015197604051986102808a6119f9565b888a5260043560208b015260408a01523360608a015260808901526001600160a01b031660a088015260c08701526102b96024356117d2565b60243560e08701526102ca81611d5c565b916102d86040519384611a15565b81835236828201116109db57818592602092838601378301015261010085015281610120850152816101408501526020936040516103168682611a15565b83815261016082015242610180820152826101a082015283835260028552604083209080518255602081015160018301556040810151600283015560018060a01b03606082015116600383019060018060a01b03166bffffffffffffffffffffffff60a01b82541617905560808101518051906001600160401b03821161095f576103b1826103a86004870154611940565b60048701611ab5565b8790601f8311600114610973576103df929187918361080d575b50508160011b915f199060031b1c19161790565b60048301555b60a08101516005830180546001600160a01b0319166001600160a01b039290921691909117905560c08101518051906001600160401b03821161095f5761043c826104336006870154611940565b60068701611ab5565b8790601f83116001146108f757610469929187918361080d5750508160011b915f199060031b1c19161790565b60068301555b6007820160e0820151610481816117d2565b61048a816117d2565b60ff80198354169116179055600882016101008201518051906001600160401b038211610881576104c5826104bf8554611940565b85611ab5565b8890601f8311600114610895576104f2929188918361080d5750508160011b915f199060031b1c19161790565b90555b6105356009830161012083015161050b816117d2565b610514816117d2565b60ff8019835416911617815561014083015190610530826117d2565b611a7b565b600a82016101608201518051906001600160401b0382116108815761055e826104bf8554611940565b8890601f83116001146108185782600c95936101a09593610593938b9261080d5750508160011b915f199060031b1c19161790565b90555b610180810151600b8501550151910155600435825260038452826040832055600454680100000000000000008110156107f9578060016105d99201600455611b04565b81549060031b9085821b915f19901b19161790556040516105fb6024356117d2565b60243581523390847f40356e236134bce77c1b29ee5c8fde173abcb9425615c84d7d6c3a4988868fa18760043593a482825260028452826040832060ff600782015416610647816117d2565b6107a1577f7f797003aa0b33a4203ffece3bfa9d702a6590870a02cd2efd67a752d1be4c63919260098201610101815461ffff1916179055600a82019161068e8354611940565b601f8111610775575b506101038355828652601760f91b60048988207f4175746f2d7265736f6c7665643a207072696d617279206f70657261746f722081557f6d6179206e6f74207265636c61696d20737065637472756d206265666f72652060018201557f7363686564756c6564206c65617365206578706972792e205365636f6e64617260028201557f792061636365737320757068656c642070657220616772656564207465726d7360038201550155600c429101555193610769604051928284935050600183526040898401526040830190611978565b0390a35b604051908152f35b60818111156106975783875288872061079b91601f01600590811c600419019101611a9a565b5f610697565b50505182825260028085526040832060098101805460ff1916909217909155600301546001600160a01b03169183907fdea81b6d877c10d75ea11943064b903cadb098f32ae103c7c9b21f3e2c00d8de9080a461076d565b634e487b7160e01b83526041600452602483fd5b015190505f806103cb565b8388528988209190601f198416895b8c82821061086b575050926001928592600c98966101a0989610610853575b505050811b019055610596565b01515f1960f88460031b161c191690555f8080610846565b6001859682939686015181550195019301610827565b634e487b7160e01b87526041600452602487fd5b8388528988209190601f198416895b8c8282106108e15750509084600195949392106108c9575b505050811b0190556104f5565b01515f1960f88460031b161c191690555f80806108bc565b60018596829396860151815501950193016108a4565b6006850187528887209190601f198416885b8b828210610949575050908460019594939210610931575b505050811b01600683015561046f565b01515f1960f88460031b161c191690555f8080610921565b6001859682939686015181550195019301610909565b634e487b7160e01b86526041600452602486fd5b6004850187528887209190601f198416885b8b8282106109c55750509084600195949392106109ad575b505050811b0160048301556103e5565b01515f1960f88460031b161c191690555f808061099d565b6001859682939686015181550195019301610985565b8480fd5b60808301519561025d565b60c083015195610251565b93610244565b60405162461bcd60e51b81526020600482015260136024820152724c65617365206973206e6f742061637469766560681b6044820152606490fd5b634e487b7160e01b84526021600452602484fd5b60405162461bcd60e51b815260206004820152602660248201527f4f6e6c79206c6561736520706172746965732063616e2072616973652061206460448201526569737075746560d01b6064820152608490fd5b5060608201516001600160a01b03163314610206565b90503d8083833e610ac58183611a15565b810190602081830312610c18578051906001600160401b038211610c1457016101c081830312610c185760405191610afc836119f9565b815183526020820151602084015260408201516040840152610b2060608301611d48565b606084015260808201516001600160401b0381116109db5781610b44918401611d77565b6080840152610b5560a08301611d48565b60a084015260c08201516001600160401b0381116109db5781610b79918401611d77565b60c084015260e08201516001600160401b0381116109db5781610b9d918401611d77565b60e08401526101008201516001600160401b0381116109db5790610bc2918301611d77565b6101008301526101208101516101208301526101408101516101408301526101608101516003811015610c1457906101a09161016084015261018081015161018084015201516101a08201525f6101ed565b8380fd5b8280fd5b6040513d84823e3d90fd5b60405162461bcd60e51b815260206004820152602560248201527f4469737075746520616c72656164792065786973747320666f722074686973206044820152646c6561736560d81b6064820152608490fd5b60405162461bcd60e51b815260206004820152601860248201527f45766964656e63652063616e6e6f7420626520656d70747900000000000000006044820152606490fd5b503461013f578060031936011261013f576040517f00000000000000000000000000000000000000000000000000000000000000006001600160a01b03168152602090f35b503461013f578060031936011261013f5760045481805b828110610dcd5750610d2c90611bd3565b9180815b838110610d495760405180610d4587826118e1565b0390f35b80610d55600192611b04565b90549060031b1c84526002602052600260ff600960408720015416610d79816117d2565b14610d85575b01610d30565b610d8e81611b04565b90549060031b1c84526002602052610dc76040852093610db6610db082611b30565b95611c36565b610dc0828a611c22565b5287611c22565b50610d7f565b610dd681611b04565b90549060031b1c84526002602052600260ff600960408720015416610dfa816117d2565b14610e08575b600101610d1b565b90610e14600191611b30565b919050610e00565b503461013f57602036600319011261013f57610e626040610d4592600435610e42611b69565b5080151580610e76575b610e5590611a36565b8152600260205220611c36565b6040519182916020835260208301906117f0565b50600154811115610e4c565b503461013f578060031936011261013f576020600154604051908152f35b503461013f578060031936011261013f57546040516001600160a01b039091168152602090f35b503461013f578060031936011261013f57610ee0611dbd565b80546001600160a01b03198116825581906001600160a01b03167f8be0079c531659141344cd1fd0a4f28419497f9722a3daafe3b4186f6b6457e08280a380f35b503461013f57602036600319011261013f57610f3b611b69565b50600435815260036020526040812054908115610f6957604081610d4593610e629352600260205220611c36565b60405162461bcd60e51b815260206004820152601960248201527f4e6f206469737075746520666f722074686973206c65617365000000000000006044820152606490fd5b503461013f57602036600319011261013f5760406020916004358152600383522054604051908152f35b503461013f57602036600319011261013f57600435815260026020526040902080546001820154916002810154600160a01b600190036003830154166040518080600486019061102791611978565b036110329082611a15565b60058401546040516001600160a01b039091169190806110558160068901611978565b036110609082611a15565b600786015460ff1660405191828060088a019061107c91611978565b036110879084611a15565b60098801549460ff86169560081c60ff1694604051978880600a8d01906110ad91611978565b036110b8908a611a15565b600b8b01549a600c0154996040519d8e809e81526020015260408d015260608c015260808b016101c090526101c08b016110f1916117ae565b9060a08b015289810360c08b0152611108916117ae565b90611112816117d2565b60e0890152878103610100890152611129916117ae565b91611133816117d2565b610120870152611142816117d2565b61014086015284810361016086015261115a916117ae565b916101808401526101a08301520390f35b503461013f57602036600319011261013f576004356001600160a01b038116919082900361013f576004549080805b83811061124357506111ab90611bd3565b928190825b8481106111c55760405180610d4588826118e1565b806111d1600192611b04565b90549060031b1c8552600260205282828060a01b03600360408820015416146111fb575b016111b0565b61120481611b04565b90549060031b1c8552600260205261123d604086209461122c61122682611b30565b96611c36565b611236828b611c22565b5288611c22565b506111f5565b61124c81611b04565b9054600391821b1c845260026020526040842001546001600160a01b03168514611279575b60010161119a565b90611285600191611b30565b919050611271565b503461013f57602036600319011261013f57600435801515806113f5575b6112b490611a36565b8082526002602052604082209060018060a01b03600383015416331480156113df575b1561139a5760098201805460ff81166112ef816117d2565b8015908115611386575b50156113375760029060ff1916179055600133920154907fdea81b6d877c10d75ea11943064b903cadb098f32ae103c7c9b21f3e2c00d8de8480a480f35b60405162461bcd60e51b815260206004820152602160248201527f43616e6e6f7420657363616c6174652061742063757272656e742073746174756044820152607360f81b6064820152608490fd5b60019150611393816117d2565b145f6112f9565b60405162461bcd60e51b815260206004820152601f60248201527f4f6e6c79206c6561736520706172746965732063616e20657363616c617465006044820152606490fd5b5060058201546001600160a01b031633146112d7565b506001548111156112ab565b50346115fd5760603660031901126115fd576004356024359060048210156115fd576044356001600160401b0381116115fd57611442903690600401611781565b61144d929192611dbd565b81151580611775575b61145f90611a36565b815f52600260205260405f20600981018054600260ff8216611480816117d2565b036117385761148e876117d2565b86156116f35783156116ae5760ff191660031781556114ae908690611a7b565b600a81016001600160401b03831161169a576114d4836114ce8354611940565b83611ab5565b5f601f841160011461160c5792600160609795937f2f6a9887533819703d6c640c07f62afa159e28115ec3fda1b43543095d804e7a9361152d848060029b995f91611601575b508160011b915f199060031b1c19161790565b90555b42600c82015501549687948260405193849261154b8a6117d2565b89845260406020850152816040850152848401375f828201840152601f01601f19168101030190a361157c816117d2565b14611585575080f35b7f00000000000000000000000000000000000000000000000000000000000000006001600160a01b031690813b156115fd575f9160248392604051948593849263d6a87d6b60e01b845260048401525af180156115f2576115e4575080f35b6115f091505f90611a15565b005b6040513d5f823e3d90fd5b5f80fd5b90508901355f61151a565b601f19841690825f5260205f20915f5b8181106116825750937f2f6a9887533819703d6c640c07f62afa159e28115ec3fda1b43543095d804e7a93869360019360029a9860609c9a9810611669575b50508284811b019055611530565b8801355f19600387901b60f8161c191690555f8061165b565b9192602060018192868c01358155019401920161161c565b634e487b7160e01b5f52604160045260245ffd5b60405162461bcd60e51b815260206004820152601860248201527f5265736f6c7574696f6e206e6f746520726571756972656400000000000000006044820152606490fd5b60405162461bcd60e51b815260206004820152601960248201527f4d7573742070726f766964652061207265736f6c7574696f6e000000000000006044820152606490fd5b60405162461bcd60e51b8152602060048201526015602482015274111a5cdc1d5d19481b9bdd08195cd8d85b185d1959605a1b6044820152606490fd5b50600154821115611456565b9181601f840112156115fd578235916001600160401b0383116115fd57602083818601950101116115fd57565b805180835260209291819084018484015e5f828201840152601f01601f1916010190565b600411156117dc57565b634e487b7160e01b5f52602160045260245ffd5b9081518152602082015160208201526040820151604082015260018060a01b0360608301511660608201526101a0806118cc61188e61186761184360808801516101c060808901526101c08801906117ae565b60018060a01b0360a08901511660a088015260c088015187820360c08901526117ae565b60e0870151611875816117d2565b60e08701526101008701518682036101008801526117ae565b61012086015161189d816117d2565b6101208601526101408601516118b2816117d2565b6101408601526101608601518582036101608701526117ae565b93610180810151610180850152015191015290565b602081016020825282518091526040820191602060408360051b8301019401925f915b83831061191357505050505090565b9091929394602080611931600193603f1986820301875289516117f0565b97019301930191939290611904565b90600182811c9216801561196e575b602083101461195a57565b634e487b7160e01b5f52602260045260245ffd5b91607f169161194f565b5f929181549161198783611940565b80835292600181169081156119dc57506001146119a357505050565b5f9081526020812093945091925b8383106119c2575060209250010190565b6001816020929493945483858701015201910191906119b1565b915050602093945060ff929192191683830152151560051b010190565b6101c081019081106001600160401b0382111761169a57604052565b90601f801991011681019081106001600160401b0382111761169a57604052565b15611a3d57565b60405162461bcd60e51b8152602060048201526016602482015275111a5cdc1d5d1948191bd95cc81b9bdd08195e1a5cdd60521b6044820152606490fd5b90611a85816117d2565b61ff0082549160081b169061ff001916179055565b5f5b828110611aa857505050565b5f82820155600101611a9c565b91601f8211611ac357505050565b808211611acf57505050565b611afa925f5260205f20916020601f830160051c9210611afc575b601f82910160051c039101611a9a565b565b5f9150611aea565b600454811015611b1c5760045f5260205f2001905f90565b634e487b7160e01b5f52603260045260245ffd5b5f198114611b3e5760010190565b634e487b7160e01b5f52601160045260245ffd5b6001600160401b03811161169a5760051b60200190565b60405190611b76826119f9565b5f6101a083828152826020820152826040820152826060820152606060808201528260a0820152606060c08201528260e0820152606061010082015282610120820152826101408201526060610160820152826101808201520152565b90611bdd82611b52565b611bea6040519182611a15565b8281528092611bfb601f1991611b52565b01905f5b828110611c0b57505050565b602090611c16611b69565b82828501015201611bff565b8051821015611b1c5760209160051b010190565b90604051611c43816119f9565b6101a0600c829480548452600181015460208501526002810154604085015260018060a01b036003820154166060850152604051611c8f81611c888160048601611978565b0382611a15565b608085015260058101546001600160a01b031660a0850152604051611cbb81611c888160068601611978565b60c085015260ff600782015416611cd1816117d2565b60e0850152604051611cea81611c888160088601611978565b61010085015260ff6009820154818116611d03816117d2565b61012087015260081c16611d16816117d2565b610140850152604051611d3081611c8881600a8601611978565b610160850152600b8101546101808501520154910152565b51906001600160a01b03821682036115fd57565b6001600160401b03811161169a57601f01601f191660200190565b81601f820112156115fd57805190611d8e82611d5c565b92611d9c6040519485611a15565b828452602083830101116115fd57815f9260208093018386015e8301015290565b5f546001600160a01b03163303611dd057565b63118cdaa760e01b5f523360045260245ffdfea26469706673582212209e179de33b61c1aa814b170a23c92050980acf4cb3cea796806fc1d8b8cfc0a864736f6c63430008210033","linkReferences":{}},"methodIdentifiers":{"disputeByLease(uint256)":"5b2a3c3b","disputes(uint256)":"564a565d","escalateToRegulator(uint256)":"3e9869fe","getDispute(uint256)":"e3a96cbd","getDisputeByLease(uint256)":"67113f78","getDisputesByRaiser(address)":"54352299","getEscalatedDisputes()":"ea7f0856","getTotalDisputes()":"97fbc2fb","leaseContract()":"ed5c2354","owner()":"8da5cb5b","raiseDispute(uint256,uint8,string)":"efc5f57d","regulatorResolve(uint256,uint8,string)":"3b0249d2","renounceOwnership()":"715018a6","transferOwnership(address)":"f2fde38b"},"id":21}