{"abi":[{"type":"constructor","inputs":[{"name":"listingContractAddress","type":"address","internalType":"address"},{"name":"requestContractAddress","type":"address","internalType":"address"}],"stateMutability":"nonpayable"},{"type":"function","name":"activeLeaseForListing","inputs":[{"name":"","type":"uint256","internalType":"uint256"}],"outputs":[{"name":"","type":"uint256","internalType":"uint256"}],"stateMutability":"view"},{"type":"function","name":"authoriseContract","inputs":[{"name":"contractAddress","type":"address","internalType":"address"}],"outputs":[],"stateMutability":"nonpayable"},{"type":"function","name":"authorisedContracts","inputs":[{"name":"","type":"address","internalType":"address"}],"outputs":[{"name":"","type":"bool","internalType":"bool"}],"stateMutability":"view"},{"type":"function","name":"checkAndExpire","inputs":[{"name":"leaseId","type":"uint256","internalType":"uint256"}],"outputs":[],"stateMutability":"nonpayable"},{"type":"function","name":"createLease","inputs":[{"name":"requestId","type":"uint256","internalType":"uint256"}],"outputs":[{"name":"","type":"uint256","internalType":"uint256"}],"stateMutability":"nonpayable"},{"type":"function","name":"forceTerminate","inputs":[{"name":"leaseId","type":"uint256","internalType":"uint256"}],"outputs":[],"stateMutability":"nonpayable"},{"type":"function","name":"getActiveLease","inputs":[{"name":"listingId","type":"uint256","internalType":"uint256"}],"outputs":[{"name":"","type":"tuple","internalType":"struct LeaseManagement.Lease","components":[{"name":"id","type":"uint256","internalType":"uint256"},{"name":"requestId","type":"uint256","internalType":"uint256"},{"name":"listingId","type":"uint256","internalType":"uint256"},{"name":"primary","type":"address","internalType":"address"},{"name":"primaryName","type":"string","internalType":"string"},{"name":"secondary","type":"address","internalType":"address"},{"name":"secondaryName","type":"string","internalType":"string"},{"name":"band","type":"string","internalType":"string"},{"name":"area","type":"string","internalType":"string"},{"name":"startTime","type":"uint256","internalType":"uint256"},{"name":"endTime","type":"uint256","internalType":"uint256"},{"name":"status","type":"uint8","internalType":"enum LeaseManagement.LeaseStatus"},{"name":"createdAt","type":"uint256","internalType":"uint256"},{"name":"terminatedAt","type":"uint256","internalType":"uint256"}]}],"stateMutability":"view"},{"type":"function","name":"getAllActiveLeases","inputs":[],"outputs":[{"name":"","type":"tuple[]","internalType":"struct LeaseManagement.Lease[]","components":[{"name":"id","type":"uint256","internalType":"uint256"},{"name":"requestId","type":"uint256","internalType":"uint256"},{"name":"listingId","type":"uint256","internalType":"uint256"},{"name":"primary","type":"address","internalType":"address"},{"name":"primaryName","type":"string","internalType":"string"},{"name":"secondary","type":"address","internalType":"address"},{"name":"secondaryName","type":"string","internalType":"string"},{"name":"band","type":"string","internalType":"string"},{"name":"area","type":"string","internalType":"string"},{"name":"startTime","type":"uint256","internalType":"uint256"},{"name":"endTime","type":"uint256","internalType":"uint256"},{"name":"status","type":"uint8","internalType":"enum LeaseManagement.LeaseStatus"},{"name":"createdAt","type":"uint256","internalType":"uint256"},{"name":"terminatedAt","type":"uint256","internalType":"uint256"}]}],"stateMutability":"view"},{"type":"function","name":"getLease","inputs":[{"name":"id","type":"uint256","internalType":"uint256"}],"outputs":[{"name":"","type":"tuple","internalType":"struct LeaseManagement.Lease","components":[{"name":"id","type":"uint256","internalType":"uint256"},{"name":"requestId","type":"uint256","internalType":"uint256"},{"name":"listingId","type":"uint256","internalType":"uint256"},{"name":"primary","type":"address","internalType":"address"},{"name":"primaryName","type":"string","internalType":"string"},{"name":"secondary","type":"address","internalType":"address"},{"name":"secondaryName","type":"string","internalType":"string"},{"name":"band","type":"string","internalType":"string"},{"name":"area","type":"string","internalType":"string"},{"name":"startTime","type":"uint256","internalType":"uint256"},{"name":"endTime","type":"uint256","internalType":"uint256"},{"name":"status","type":"uint8","internalType":"enum LeaseManagement.LeaseStatus"},{"name":"createdAt","type":"uint256","internalType":"uint256"},{"name":"terminatedAt","type":"uint256","internalType":"uint256"}]}],"stateMutability":"view"},{"type":"function","name":"getLeasesByPrimary","inputs":[{"name":"primary","type":"address","internalType":"address"}],"outputs":[{"name":"","type":"tuple[]","internalType":"struct LeaseManagement.Lease[]","components":[{"name":"id","type":"uint256","internalType":"uint256"},{"name":"requestId","type":"uint256","internalType":"uint256"},{"name":"listingId","type":"uint256","internalType":"uint256"},{"name":"primary","type":"address","internalType":"address"},{"name":"primaryName","type":"string","internalType":"string"},{"name":"secondary","type":"address","internalType":"address"},{"name":"secondaryName","type":"string","internalType":"string"},{"name":"band","type":"string","internalType":"string"},{"name":"area","type":"string","internalType":"string"},{"name":"startTime","type":"uint256","internalType":"uint256"},{"name":"endTime","type":"uint256","internalType":"uint256"},{"name":"status","type":"uint8","internalType":"enum LeaseManagement.LeaseStatus"},{"name":"createdAt","type":"uint256","internalType":"uint256"},{"name":"terminatedAt","type":"uint256","internalType":"uint256"}]}],"stateMutability":"view"},{"type":"function","name":"getLeasesBySecondary","inputs":[{"name":"secondary","type":"address","internalType":"address"}],"outputs":[{"name":"","type":"tuple[]","internalType":"struct LeaseManagement.Lease[]","components":[{"name":"id","type":"uint256","internalType":"uint256"},{"name":"requestId","type":"uint256","internalType":"uint256"},{"name":"listingId","type":"uint256","internalType":"uint256"},{"name":"primary","type":"address","internalType":"address"},{"name":"primaryName","type":"string","internalType":"string"},{"name":"secondary","type":"address","internalType":"address"},{"name":"secondaryName","type":"string","internalType":"string"},{"name":"band","type":"string","internalType":"string"},{"name":"area","type":"string","internalType":"string"},{"name":"startTime","type":"uint256","internalType":"uint256"},{"name":"endTime","type":"uint256","internalType":"uint256"},{"name":"status","type":"uint8","internalType":"enum LeaseManagement.LeaseStatus"},{"name":"createdAt","type":"uint256","internalType":"uint256"},{"name":"terminatedAt","type":"uint256","internalType":"uint256"}]}],"stateMutability":"view"},{"type":"function","name":"getTotalLeases","inputs":[],"outputs":[{"name":"","type":"uint256","internalType":"uint256"}],"stateMutability":"view"},{"type":"function","name":"isLeaseActive","inputs":[{"name":"leaseId","type":"uint256","internalType":"uint256"}],"outputs":[{"name":"","type":"bool","internalType":"bool"}],"stateMutability":"view"},{"type":"function","name":"leaseByRequest","inputs":[{"name":"","type":"uint256","internalType":"uint256"}],"outputs":[{"name":"","type":"uint256","internalType":"uint256"}],"stateMutability":"view"},{"type":"function","name":"leases","inputs":[{"name":"","type":"uint256","internalType":"uint256"}],"outputs":[{"name":"id","type":"uint256","internalType":"uint256"},{"name":"requestId","type":"uint256","internalType":"uint256"},{"name":"listingId","type":"uint256","internalType":"uint256"},{"name":"primary","type":"address","internalType":"address"},{"name":"primaryName","type":"string","internalType":"string"},{"name":"secondary","type":"address","internalType":"address"},{"name":"secondaryName","type":"string","internalType":"string"},{"name":"band","type":"string","internalType":"string"},{"name":"area","type":"string","internalType":"string"},{"name":"startTime","type":"uint256","internalType":"uint256"},{"name":"endTime","type":"uint256","internalType":"uint256"},{"name":"status","type":"uint8","internalType":"enum LeaseManagement.LeaseStatus"},{"name":"createdAt","type":"uint256","internalType":"uint256"},{"name":"terminatedAt","type":"uint256","internalType":"uint256"}],"stateMutability":"view"},{"type":"function","name":"listingContract","inputs":[],"outputs":[{"name":"","type":"address","internalType":"contract SpectrumListing"}],"stateMutability":"view"},{"type":"function","name":"owner","inputs":[],"outputs":[{"name":"","type":"address","internalType":"address"}],"stateMutability":"view"},{"type":"function","name":"releaseLease","inputs":[{"name":"leaseId","type":"uint256","internalType":"uint256"}],"outputs":[],"stateMutability":"nonpayable"},{"type":"function","name":"renounceOwnership","inputs":[],"outputs":[],"stateMutability":"nonpayable"},{"type":"function","name":"requestContract","inputs":[],"outputs":[{"name":"","type":"address","internalType":"contract AccessRequest"}],"stateMutability":"view"},{"type":"function","name":"transferOwnership","inputs":[{"name":"newOwner","type":"address","internalType":"address"}],"outputs":[],"stateMutability":"nonpayable"},{"type":"event","name":"LeaseCreated","inputs":[{"name":"leaseId","type":"uint256","indexed":true,"internalType":"uint256"},{"name":"listingId","type":"uint256","indexed":true,"internalType":"uint256"},{"name":"requestId","type":"uint256","indexed":true,"internalType":"uint256"},{"name":"primary","type":"address","indexed":false,"internalType":"address"},{"name":"secondary","type":"address","indexed":false,"internalType":"address"},{"name":"startTime","type":"uint256","indexed":false,"internalType":"uint256"},{"name":"endTime","type":"uint256","indexed":false,"internalType":"uint256"}],"anonymous":false},{"type":"event","name":"LeaseExpired","inputs":[{"name":"leaseId","type":"uint256","indexed":true,"internalType":"uint256"},{"name":"listingId","type":"uint256","indexed":true,"internalType":"uint256"},{"name":"secondary","type":"address","indexed":false,"internalType":"address"}],"anonymous":false},{"type":"event","name":"LeaseReleased","inputs":[{"name":"leaseId","type":"uint256","indexed":true,"internalType":"uint256"},{"name":"listingId","type":"uint256","indexed":true,"internalType":"uint256"},{"name":"secondary","type":"address","indexed":false,"internalType":"address"},{"name":"releasedAt","type":"uint256","indexed":false,"internalType":"uint256"}],"anonymous":false},{"type":"event","name":"OwnershipTransferred","inputs":[{"name":"previousOwner","type":"address","indexed":true,"internalType":"address"},{"name":"newOwner","type":"address","indexed":true,"internalType":"address"}],"anonymous":false},{"type":"error","name":"OwnableInvalidOwner","inputs":[{"name":"owner","type":"address","internalType":"address"}]},{"type":"error","name":"OwnableUnauthorizedAccount","inputs":[{"name":"account","type":"address","internalType":"address"}]}],"bytecode":{"object":"0x60c03461019757601f611fd738819003918201601f19168301916001600160401b0383118484101761019b57808492604094855283398101031261019757610052602061004b836101af565b92016101af565b3315610184575f8054336001600160a01b0319821681178355604051949290916001600160a01b0316907f8be0079c531659141344cd1fd0a4f28419497f9722a3daafe3b4186f6b6457e09080a36001600160a01b031691821561014257506001600160a01b03169081156100fd5760805260a052604051611e1390816101c482396080518181816104d60152610aac015260a051818181610a310152818161161f0152611d510152f35b60405162461bcd60e51b815260206004820152601860248201527f496e76616c6964207265717565737420636f6e747261637400000000000000006044820152606490fd5b62461bcd60e51b815260206004820152601860248201527f496e76616c6964206c697374696e6720636f6e747261637400000000000000006044820152606490fd5b631e4fbdf760e01b5f525f60045260245ffd5b5f80fd5b634e487b7160e01b5f52604160045260245ffd5b51906001600160a01b03821682036101975756fe6080806040526004361015610012575f80fd5b5f3560e01c9081631bcc85b214611774575080632749f8881461164e578063288338a91461160a5780633d1cf0c414611509578063404f90ae146114725780635a67ae2d146109e957806367e7c5ce146109bf578063715018a61461096857806373117b14146108e35780638927a106146107b15780638da5cb5b1461078a5780639f44657c14610739578063a86df81214610631578063bca3c26114610522578063bf5bf2c514610505578063d5165327146104c1578063d6a87d6b14610393578063dbd314bb14610352578063e1348fa9146102b5578063f2fde38b1461022c5763fa94813214610103575f80fd5b34610228576020366003190112610228576004356001600160a01b03811690819003610228576006545f805b8281106101dc575061014090611cde565b915f905f5b83811061015e576040518061015a87826119ec565b0390f35b8061016a600192611c31565b90549060031b1c5f52600260205282828060a01b03600360405f2001541614610194575b01610145565b61019d81611c31565b90549060031b1c5f5260026020526101d660405f20946101c56101bf82611c0f565b96611acd565b6101cf828a611d2d565b5287611d2d565b5061018e565b6101e581611c31565b9054600391821b1c5f90815260026020526040902001546001600160a01b03168414610214575b60010161012f565b90610220600191611c0f565b91905061020c565b5f80fd5b34610228576020366003190112610228576004356001600160a01b038116908190036102285761025a611db7565b80156102a2575f80546001600160a01b03198116831782556001600160a01b0316907f8be0079c531659141344cd1fd0a4f28419497f9722a3daafe3b4186f6b6457e09080a3005b631e4fbdf760e01b5f525f60045260245ffd5b34610228576020366003190112610228576102ce611c5d565b506004355f52600460205260405f2054801561030e575f52600260205261015a6102fa60405f20611acd565b60405191829160208352602083019061190d565b606460405162461bcd60e51b815260206004820152602060248201527f4e6f20616374697665206c6561736520666f722074686973206c697374696e676044820152fd5b34610228576020366003190112610228576004356001600160a01b03811690819003610228575f526005602052602060ff60405f2054166040519015158152f35b3461022857602036600319011261022857600435801515806104b5575b6103b990611a4b565b5f546001600160a01b03163314801561049f575b1561046957805f52600260205260405f2090600b8201600281546103fd60ff82166103f7816118ef565b15611a8e565b60ff191617905542600d8301557fb84566eeb523e05dadd1b287bc99fef717dfb32ea08a97e9f43e17c300c0c7f76104646002840161043c8154611d41565b54600590940154604080516001600160a01b0392909216825242602083015290918291820190565b0390a3005b60405162461bcd60e51b815260206004820152600e60248201526d139bdd08185d5d1a1bdc9a5cd95960921b6044820152606490fd5b50335f52600560205260ff60405f2054166103cd565b506001548111156103b0565b34610228575f366003190112610228576040517f00000000000000000000000000000000000000000000000000000000000000006001600160a01b03168152602090f35b34610228575f366003190112610228576020600154604051908152f35b34610228575f366003190112610228576006545f805b8281106105e4575061054990611cde565b905f5f5b828110610562576040518061015a86826119ec565b8061056e600192611c31565b90549060031b1c5f52600260205260ff600b60405f20015416610590816118ef565b1561059c575b0161054d565b6105a581611c31565b90549060031b1c5f5260026020526105de60405f20936105cd6105c782611c0f565b95611acd565b6105d78289611d2d565b5286611d2d565b50610596565b6105ed81611c31565b90549060031b1c5f52600260205260ff600b60405f2001541661060f816118ef565b1561061d575b600101610538565b90610629600191611c0f565b919050610615565b34610228576020366003190112610228576004356001600160a01b03811690819003610228576006545f805b8281106106ef575061066e90611cde565b915f905f5b838110610688576040518061015a87826119ec565b80610694600192611c31565b90549060031b1c5f52600260205282828060a01b03600560405f20015416146106be575b01610673565b6106c781611c31565b90549060031b1c5f5260026020526106e960405f20946101c56101bf82611c0f565b506106b8565b6106f881611c31565b90549060031b1c5f5260026020528360018060a01b03600560405f2001541614610725575b60010161065d565b90610731600191611c0f565b91905061071d565b3461022857602036600319011261022857600435610755611c5d565b508015158061077e575b61076890611a4b565b5f52600260205261015a6102fa60405f20611acd565b5060015481111561075f565b34610228575f366003190112610228575f546040516001600160a01b039091168152602090f35b34610228576020366003190112610228576004355f52600260205260405f2080546001820154916002810154600160a01b6001900360038301541691600481016107fa9061182b565b60058201546001600160a01b031693906108166006840161182b565b6108226007850161182b565b61082e6008860161182b565b91600986015497600a87015494600b88015460ff1696600c89015498600d0154996040519d8e809e81526020015260408d015260608c015260808b016101c090526101c08b0161087d916118cb565b9060a08b015289810360c08b0152610894916118cb565b88810360e08a01526108a5916118cb565b8781036101008901526108b7916118cb565b946101208701526101408601526108cd816118ef565b6101608501526101808401526101a08301520390f35b34610228576020366003190112610228576004356001600160a01b0381169081900361022857610911611db7565b8015610931575f908152600560205260409020805460ff19166001179055005b60405162461bcd60e51b815260206004820152600f60248201526e496e76616c6964206164647265737360881b6044820152606490fd5b34610228575f36600319011261022857610980611db7565b5f80546001600160a01b0319811682556001600160a01b03167f8be0079c531659141344cd1fd0a4f28419497f9722a3daafe3b4186f6b6457e08280a3005b34610228576020366003190112610228576004355f526003602052602060405f2054604051908152f35b3461022857602036600319011261022857600435610a05611db7565b805f52600360205260405f205461141f5760405163c58343ef60e01b8152600481018290525f816024817f00000000000000000000000000000000000000000000000000000000000000006001600160a01b03165afa9081156112c8575f91611311575b50600160e0820151610a7a816118ef565b610a83816118ef565b036112d35760608101805160405163083d13a560e11b8152600481019190915292905f846024817f00000000000000000000000000000000000000000000000000000000000000006001600160a01b03165afa9384156112c8575f9461119d575b50600154610af190611c0f565b928360015581519160208601928486600160a01b6001900386511660408a0151936020870194600160a01b600190038651169760408101519c6060810151906080015190608083019e8f519360a0019b8c519560405198610b518a6117ee565b8a8a526020808b019c8d526040808c019a8b5260608c0192835260808c0193845260a08c0194855260c08c0195865260e08c019687526101008c019788526101208c019889526101408c01998a525f6101608d01818152426101808f019081526101a08f018381529f8352600294859052929091209c518d559d5160018d01559951908b01555160038a0180546001600160a01b0319166001600160a01b0392909216919091179055518051989a979860048c01916001600160401b038211610e6d578190610c20845461179a565b601f8111611144575b50602090601f83116001146110e1575f926110d6575b50508160011b915f199060031b1c19161790555b5160058a0180546001600160a01b0319166001600160a01b039290921691909117905551805160068a01916001600160401b038211610e6d578190610c98845461179a565b601f811161107d575b50602090601f831160011461101a575f9261100f575b50508160011b915f199060031b1c19161790555b51805160078901916001600160401b038211610e6d578190610ced845461179a565b601f8111610fb6575b50602090601f8311600114610f53575f92610f48575b50508160011b915f199060031b1c19161790555b51805160088801916001600160401b038211610e6d57610d40835461179a565b601f8111610ef7575b50602090601f8311600114610e8c57600d98979695949392915f9183610e81575b50508160011b915f199060031b1c19161790555b51600987015551600a860155600b85019051610d99816118ef565b610da2816118ef565b60ff8019835416911617905551600c84015551910155845f5260036020528560405f205581515f5260046020528560405f20556006549068010000000000000000821015610e6d5760209787947fb99d9cd53268a3f1e241f35478749d1eb5de7be3197cec83b2c3500b53456b9494610e2385600160809701600655611c31565b81545f1960039290921b91821b19169089901b179055519651925191519051604080516001600160a01b039586168152949093168b850152918301526060820152a4604051908152f35b634e487b7160e01b5f52604160045260245ffd5b015190505f80610d6a565b90601f19831691845f52815f20925f5b818110610edf5750916001939185600d9c9b9a999897969410610ec7575b505050811b019055610d7e565b01515f1960f88460031b161c191690555f8080610eba565b92936020600181928786015181550195019301610e9c565b82811115610d4957835f5260205f20601f840160051c9060208510610f40575b81601f9101920160051c03905f5b828110610f33575050610d49565b5f82820155600101610f25565b5f9150610f17565b015190505f80610d0c565b5f8581528281209350601f198516905b818110610f9e5750908460019594939210610f86575b505050811b019055610d20565b01515f1960f88460031b161c191690555f8080610f79565b92936020600181928786015181550195019301610f63565b82811115610cf657909150835f5260205f20601f840160051c9060208510611007575b849392601f0160051c82900391015f5b828110610ff7575050610cf6565b5f81830155859450600101610fe9565b5f9150610fd9565b015190505f80610cb7565b5f8581528281209350601f198516905b818110611065575090846001959493921061104d575b505050811b019055610ccb565b01515f1960f88460031b161c191690555f8080611040565b9293602060018192878601518155019501930161102a565b82811115610ca157909150835f5260205f20601f840160051c90602085106110ce575b849392601f0160051c82900391015f5b8281106110be575050610ca1565b5f818301558594506001016110b0565b5f91506110a0565b015190505f80610c3f565b5f8581528281209350601f198516905b81811061112c5750908460019594939210611114575b505050811b019055610c53565b01515f1960f88460031b161c191690555f8080611107565b929360206001819287860151815501950193016110f1565b82811115610c2957909150835f5260205f20601f840160051c9060208510611195575b849392601f0160051c82900391015f5b828110611185575050610c29565b5f81830155859450600101611177565b5f9150611167565b9093503d805f833e6111af818361180a565b810190602081830312610228578051906001600160401b03821161022857016101408183031261022857604051916111e6836117d2565b815183526111f660208301611ba6565b602084015260408201516001600160401b038111610228578161121a918401611bba565b604084015260608201516001600160401b038111610228578161123e918401611bba565b606084015260808201516001600160401b0381116102285781611262918401611bba565b608084015260a082015160a084015260c082015160c084015260e0820151906001600160401b0382116102285761129a918301611bba565b60e0830152610100810151906003821015610228576101209161010084015201516101208201529284610ae4565b6040513d5f823e3d90fd5b60405162461bcd60e51b815260206004820152601660248201527514995c5d595cdd081a5cc81b9bdd0819dc985b9d195960521b6044820152606490fd5b90503d805f833e611322818361180a565b810190602081830312610228578051906001600160401b03821161022857019061014082820312610228576040519161135a836117d2565b8051835261136a60208201611ba6565b602084015260408101516001600160401b038111610228578261138e918301611bba565b6040840152606081015160608401526080810151608084015260a081015160a084015260c08101516001600160401b03811161022857826113d0918301611bba565b60c084015260e081015160038110156102285760e08401526101008101516001600160401b038111610228576101209261140b918301611bba565b610100840152015161012082015282610a69565b60405162461bcd60e51b815260206004820152602560248201527f4c6561736520616c72656164792065786973747320666f7220746869732072656044820152641c5d595cdd60da1b6064820152608490fd5b3461022857602036600319011261022857600435801515806114fd575b61149890611a4b565b5f52600260205260206114ad60405f20611acd565b6101608101516114bc816118ef565b6114c5816118ef565b1590816114ed575b816114de575b506040519015158152f35b610140915001514210826114d3565b61012081015142101591506114cd565b5060015481111561148f565b3461022857602036600319011261022857600435801515806115fe575b61152f90611a4b565b805f52600260205260405f2090600b8201805461155260ff82166103f7816118ef565b600a84015442106115b95760019060ff191617905542600d8301557fe76ec4cfae31630a8336fb4375d5c556cfec551bb79ad1ee9c2b6b5f7c930ba860206002840161159e8154611d41565b546005909401546040516001600160a01b03919091168152a3005b60405162461bcd60e51b815260206004820152601960248201527f4c6561736520686173206e6f74206578706972656420796574000000000000006044820152606490fd5b50600154811115611526565b34610228575f366003190112610228576040517f00000000000000000000000000000000000000000000000000000000000000006001600160a01b03168152602090f35b346102285760203660031901126102285760043580151580611768575b61167490611a4b565b5f818152600260205260409020600581018054909291906001600160a01b0316330361171357610464600282600b7fb84566eeb523e05dadd1b287bc99fef717dfb32ea08a97e9f43e17c300c0c7f794018281546116d860ff82166103f7816118ef565b60ff191617905542600d820155016116f08154611d41565b549354604080516001600160a01b03909216825242602083015290918291820190565b60405162461bcd60e51b815260206004820152602760248201527f4f6e6c7920746865207365636f6e64617279206f70657261746f722063616e2060448201526672656c6561736560c81b6064820152608490fd5b5060015481111561166b565b34610228576020366003190112610228576020906004355f526004825260405f20548152f35b90600182811c921680156117c8575b60208310146117b457565b634e487b7160e01b5f52602260045260245ffd5b91607f16916117a9565b61014081019081106001600160401b03821117610e6d57604052565b6101c081019081106001600160401b03821117610e6d57604052565b90601f801991011681019081106001600160401b03821117610e6d57604052565b9060405191825f82549261183e8461179a565b80845293600181169081156118a95750600114611865575b506118639250038361180a565b565b90505f9291925260205f20905f915b81831061188d575050906020611863928201015f611856565b6020919350806001915483858901015201910190918492611874565b90506020925061186394915060ff191682840152151560051b8201015f611856565b805180835260209291819084018484015e5f828201840152601f01601f1916010190565b600311156118f957565b634e487b7160e01b5f52602160045260245ffd5b9081518152602082015160208201526040820151604082015260018060a01b0360608301511660608201526101a0806119aa61199661198461196060808801516101c060808901526101c08801906118cb565b60018060a01b0360a08901511660a088015260c088015187820360c08901526118cb565b60e087015186820360e08801526118cb565b6101008601518582036101008701526118cb565b936101208101516101208501526101408101516101408501526101608101516119d2816118ef565b610160850152610180810151610180850152015191015290565b602081016020825282518091526040820191602060408360051b8301019401925f915b838310611a1e57505050505090565b9091929394602080611a3c600193603f19868203018752895161190d565b97019301930191939290611a0f565b15611a5257565b60405162461bcd60e51b81526020600482015260146024820152731319585cd948191bd95cc81b9bdd08195e1a5cdd60621b6044820152606490fd5b15611a9557565b60405162461bcd60e51b815260206004820152601060248201526f4c65617365206e6f742061637469766560801b6044820152606490fd5b90604051611ada816117ee565b82548152600183015460208201526002830154604082015260038301546001600160a01b031660608201529182906101a090600d90611b1b6004820161182b565b608085015260058101546001600160a01b031660a0850152611b3f6006820161182b565b60c0850152611b506007820161182b565b60e0850152611b616008820161182b565b6101008501526009810154610120850152600a81015461014085015260ff600b82015416611b8e816118ef565b610160850152600c8101546101808501520154910152565b51906001600160a01b038216820361022857565b81601f82011215610228578051906001600160401b038211610e6d5760405192611bee601f8401601f19166020018561180a565b8284526020838301011161022857815f9260208093018386015e8301015290565b5f198114611c1d5760010190565b634e487b7160e01b5f52601160045260245ffd5b600654811015611c495760065f5260205f2001905f90565b634e487b7160e01b5f52603260045260245ffd5b60405190611c6a826117ee565b5f6101a083828152826020820152826040820152826060820152606060808201528260a0820152606060c0820152606060e08201526060610100820152826101208201528261014082015282610160820152826101808201520152565b6001600160401b038111610e6d5760051b60200190565b90611ce882611cc7565b611cf5604051918261180a565b8281528092611d06601f1991611cc7565b01905f5b828110611d1657505050565b602090611d21611c5d565b82828501015201611d0a565b8051821015611c495760209160051b010190565b5f818152600460205260408120557f00000000000000000000000000000000000000000000000000000000000000006001600160a01b031690813b15610228575f9160248392604051948593849263bc3f1acb60e01b845260048401525af180156112c857611dad5750565b5f6118639161180a565b5f546001600160a01b03163303611dca57565b63118cdaa760e01b5f523360045260245ffdfea264697066735822122054198f349aeba33f93f4caacc94e9b8137f684ce022fc2df28f6290526be33ac64736f6c63430008210033","linkReferences":{}},"methodIdentifiers":{"activeLeaseForListing(uint256)":"1bcc85b2","authoriseContract(address)":"73117b14","authorisedContracts(address)":"dbd314bb","checkAndExpire(uint256)":"3d1cf0c4","createLease(uint256)":"5a67ae2d","forceTerminate(uint256)":"d6a87d6b","getActiveLease(uint256)":"e1348fa9","getAllActiveLeases()":"bca3c261","getLease(uint256)":"9f44657c","getLeasesByPrimary(address)":"fa948132","getLeasesBySecondary(address)":"a86df812","getTotalLeases()":"bf5bf2c5","isLeaseActive(uint256)":"404f90ae","leaseByRequest(uint256)":"67e7c5ce","leases(uint256)":"8927a106","listingContract()":"d5165327","owner()":"8da5cb5b","releaseLease(uint256)":"2749f888","renounceOwnership()":"715018a6","requestContract()":"288338a9","transferOwnership(address)":"f2fde38b"},"id":22}