{"abi":[{"type":"constructor","inputs":[],"stateMutability":"nonpayable"},{"type":"function","name":"createListing","inputs":[{"name":"band","type":"string","internalType":"string"},{"name":"area","type":"string","internalType":"string"},{"name":"startTime","type":"uint256","internalType":"uint256"},{"name":"endTime","type":"uint256","internalType":"uint256"},{"name":"conditions","type":"string","internalType":"string"}],"outputs":[{"name":"","type":"uint256","internalType":"uint256"}],"stateMutability":"nonpayable"},{"type":"function","name":"deactivateListing","inputs":[{"name":"id","type":"uint256","internalType":"uint256"}],"outputs":[],"stateMutability":"nonpayable"},{"type":"function","name":"expireListing","inputs":[{"name":"id","type":"uint256","internalType":"uint256"}],"outputs":[],"stateMutability":"nonpayable"},{"type":"function","name":"getActiveListings","inputs":[],"outputs":[{"name":"","type":"tuple[]","internalType":"struct SpectrumListing.Listing[]","components":[{"name":"id","type":"uint256","internalType":"uint256"},{"name":"owner","type":"address","internalType":"address"},{"name":"operatorName","type":"string","internalType":"string"},{"name":"band","type":"string","internalType":"string"},{"name":"area","type":"string","internalType":"string"},{"name":"startTime","type":"uint256","internalType":"uint256"},{"name":"endTime","type":"uint256","internalType":"uint256"},{"name":"conditions","type":"string","internalType":"string"},{"name":"status","type":"uint8","internalType":"enum SpectrumListing.ListingStatus"},{"name":"createdAt","type":"uint256","internalType":"uint256"}]}],"stateMutability":"view"},{"type":"function","name":"getListing","inputs":[{"name":"id","type":"uint256","internalType":"uint256"}],"outputs":[{"name":"","type":"tuple","internalType":"struct SpectrumListing.Listing","components":[{"name":"id","type":"uint256","internalType":"uint256"},{"name":"owner","type":"address","internalType":"address"},{"name":"operatorName","type":"string","internalType":"string"},{"name":"band","type":"string","internalType":"string"},{"name":"area","type":"string","internalType":"string"},{"name":"startTime","type":"uint256","internalType":"uint256"},{"name":"endTime","type":"uint256","internalType":"uint256"},{"name":"conditions","type":"string","internalType":"string"},{"name":"status","type":"uint8","internalType":"enum SpectrumListing.ListingStatus"},{"name":"createdAt","type":"uint256","internalType":"uint256"}]}],"stateMutability":"view"},{"type":"function","name":"getListingsByOperator","inputs":[{"name":"operator","type":"address","internalType":"address"}],"outputs":[{"name":"","type":"tuple[]","internalType":"struct SpectrumListing.Listing[]","components":[{"name":"id","type":"uint256","internalType":"uint256"},{"name":"owner","type":"address","internalType":"address"},{"name":"operatorName","type":"string","internalType":"string"},{"name":"band","type":"string","internalType":"string"},{"name":"area","type":"string","internalType":"string"},{"name":"startTime","type":"uint256","internalType":"uint256"},{"name":"endTime","type":"uint256","internalType":"uint256"},{"name":"conditions","type":"string","internalType":"string"},{"name":"status","type":"uint8","internalType":"enum SpectrumListing.ListingStatus"},{"name":"createdAt","type":"uint256","internalType":"uint256"}]}],"stateMutability":"view"},{"type":"function","name":"getTotalListings","inputs":[],"outputs":[{"name":"","type":"uint256","internalType":"uint256"}],"stateMutability":"view"},{"type":"function","name":"isAvailable","inputs":[{"name":"id","type":"uint256","internalType":"uint256"}],"outputs":[{"name":"","type":"bool","internalType":"bool"}],"stateMutability":"view"},{"type":"function","name":"listings","inputs":[{"name":"","type":"uint256","internalType":"uint256"}],"outputs":[{"name":"id","type":"uint256","internalType":"uint256"},{"name":"owner","type":"address","internalType":"address"},{"name":"operatorName","type":"string","internalType":"string"},{"name":"band","type":"string","internalType":"string"},{"name":"area","type":"string","internalType":"string"},{"name":"startTime","type":"uint256","internalType":"uint256"},{"name":"endTime","type":"uint256","internalType":"uint256"},{"name":"conditions","type":"string","internalType":"string"},{"name":"status","type":"uint8","internalType":"enum SpectrumListing.ListingStatus"},{"name":"createdAt","type":"uint256","internalType":"uint256"}],"stateMutability":"view"},{"type":"function","name":"operatorNames","inputs":[{"name":"","type":"address","internalType":"address"}],"outputs":[{"name":"","type":"string","internalType":"string"}],"stateMutability":"view"},{"type":"function","name":"owner","inputs":[],"outputs":[{"name":"","type":"address","internalType":"address"}],"stateMutability":"view"},{"type":"function","name":"registerOperator","inputs":[{"name":"operator","type":"address","internalType":"address"},{"name":"name","type":"string","internalType":"string"}],"outputs":[],"stateMutability":"nonpayable"},{"type":"function","name":"registeredOperators","inputs":[{"name":"","type":"address","internalType":"address"}],"outputs":[{"name":"","type":"bool","internalType":"bool"}],"stateMutability":"view"},{"type":"function","name":"removeOperator","inputs":[{"name":"operator","type":"address","internalType":"address"}],"outputs":[],"stateMutability":"nonpayable"},{"type":"function","name":"renounceOwnership","inputs":[],"outputs":[],"stateMutability":"nonpayable"},{"type":"function","name":"transferOwnership","inputs":[{"name":"newOwner","type":"address","internalType":"address"}],"outputs":[],"stateMutability":"nonpayable"},{"type":"event","name":"ListingCreated","inputs":[{"name":"listingId","type":"uint256","indexed":true,"internalType":"uint256"},{"name":"owner","type":"address","indexed":true,"internalType":"address"},{"name":"band","type":"string","indexed":false,"internalType":"string"},{"name":"area","type":"string","indexed":false,"internalType":"string"},{"name":"startTime","type":"uint256","indexed":false,"internalType":"uint256"},{"name":"endTime","type":"uint256","indexed":false,"internalType":"uint256"}],"anonymous":false},{"type":"event","name":"ListingDeactivated","inputs":[{"name":"listingId","type":"uint256","indexed":true,"internalType":"uint256"},{"name":"owner","type":"address","indexed":true,"internalType":"address"}],"anonymous":false},{"type":"event","name":"ListingExpired","inputs":[{"name":"listingId","type":"uint256","indexed":true,"internalType":"uint256"}],"anonymous":false},{"type":"event","name":"OperatorRegistered","inputs":[{"name":"operator","type":"address","indexed":true,"internalType":"address"},{"name":"name","type":"string","indexed":false,"internalType":"string"}],"anonymous":false},{"type":"event","name":"OperatorRemoved","inputs":[{"name":"operator","type":"address","indexed":true,"internalType":"address"}],"anonymous":false},{"type":"event","name":"OwnershipTransferred","inputs":[{"name":"previousOwner","type":"address","indexed":true,"internalType":"address"},{"name":"newOwner","type":"address","indexed":true,"internalType":"address"}],"anonymous":false},{"type":"error","name":"OwnableInvalidOwner","inputs":[{"name":"owner","type":"address","internalType":"address"}]},{"type":"error","name":"OwnableUnauthorizedAccount","inputs":[{"name":"account","type":"address","internalType":"address"}]}],"bytecode":{"object":"0x608080604052346071573315605e575f8054336001600160a01b0319821681178355916001600160a01b03909116907f8be0079c531659141344cd1fd0a4f28419497f9722a3daafe3b4186f6b6457e09080a36118bf90816100768239f35b631e4fbdf760e01b5f525f60045260245ffd5b5f80fdfe60806040526004361015610011575f80fd5b5f3560e01c8063107a274a146112af5780632cbb7c66146111515780633a178d99146110c35780633b8d915f14610fb55780636ca58ec814610f69578063715018a614610f1257806387c35bc014610e025780638b1dd34e14610ce15780638da5cb5b14610cba578063ac8a584a14610c0a578063afebf40314610bcd578063cc2ee0fc146104d4578063de74e57b146103dc578063f2fde38b14610357578063fbf30c351461033a5763fce92894146100c9575f80fd5b34610336576040366003190112610336576100e26113eb565b6024356001600160401b03811161033657610101903690600401611575565b9161010a611863565b6001600160a01b03169081156102ff5782156102c357815f52600360205260ff60405f20541661028957815f52600360205260405f20600160ff19825416179055815f52600460205260405f20926001600160401b0381116102755761017a816101748654611401565b866117e5565b5f93601f82116001146101f3576101c982807f11a85ea4a40584362c3d9c17685709a2e02b466ac78d5eb00b6aff73d90f580596975f916101e8575b508160011b915f199060031b1c19161790565b90555b6101e3604051928392602084526020840191611843565b0390a2005b90508501355f6101b6565b601f19821694815f5260205f20905f5b87811061025d5750837f11a85ea4a40584362c3d9c17685709a2e02b466ac78d5eb00b6aff73d90f5805969710610244575b5050600182811b0190556101cc565b8401355f19600385901b60f8161c191690555f80610235565b90916020600181928589013581550193019101610203565b634e487b7160e01b5f52604160045260245ffd5b60405162461bcd60e51b8152602060048201526012602482015271105b1c9958591e481c9959da5cdd195c995960721b6044820152606490fd5b60405162461bcd60e51b81526020600482015260146024820152734e616d652063616e6e6f7420626520656d70747960601b6044820152606490fd5b60405162461bcd60e51b815260206004820152600f60248201526e496e76616c6964206164647265737360881b6044820152606490fd5b5f80fd5b34610336575f366003190112610336576020600154604051908152f35b34610336576020366003190112610336576103706113eb565b610378611863565b6001600160a01b031680156103c9575f80546001600160a01b03198116831782556001600160a01b0316907f8be0079c531659141344cd1fd0a4f28419497f9722a3daafe3b4186f6b6457e09080a3005b631e4fbdf760e01b5f525f60045260245ffd5b34610336576020366003190112610336576004355f52600260205260405f208054600160a01b60019003600183015416916002810161041a90611476565b61042660038301611476565b61043260048401611476565b60058401546006850154909161044a60078701611476565b93600887015460ff16966009015495604051998a998a5260208a0152604089016101409052610140890161047d91611314565b88810360608a015261048e91611314565b878103608089015261049f91611314565b9160a087015260c086015284810360e08601526104bb91611314565b9161010084016104ca91611338565b6101208301520390f35b346103365760a0366003190112610336576004356001600160401b03811161033657610504903690600401611575565b906024356001600160401b03811161033657610524903690600401611575565b60449391933592606435926084356001600160401b0381116103365761054e903690600401611575565b9490335f52600360205260ff60405f20541615610b88578215610b4c578415610b105742871115610acb5786821115610a86578515610a4157878491848998610598600154611704565b9a8b9384600155335f5260046020528a6106146105f660405f20986105e76040519b8c996105c58b611439565b8b8b5260406105db60208d019e8f339052611476565b9b019a8b5236916117a0565b9360608c0194855236916117a0565b9260808a0193845260a08a0194855260c08a01958b875236916117a0565b9460e089019586526101008901975f89526101208a01974289525f52600260205260405f2099518a5560018a019060018060a01b039051166bffffffffffffffffffffffff60a01b8254161790556002890190518051906001600160401b0382116102755761068d826106878554611401565b856117e5565b602090601f83116001146109de576106bc92915f918361090d575b50508160011b915f199060031b1c19161790565b90555b51805160038901916001600160401b038211610275576106e3826106878554611401565b602090601f831160011461097b5761071192915f918361090d5750508160011b915f199060031b1c19161790565b90555b51805160048801916001600160401b03821161027557610738826106878554611401565b602090601f83116001146109185761076692915f918361090d5750508160011b915f199060031b1c19161790565b90555b51600586015551600685015551805160078501916001600160401b03821161027557610799826106878554611401565b602090601f83116001146108aa576107c792915f918361089f5750508160011b915f199060031b1c19161790565b90555b60088301915191600383101561088b5760099260ff801983541691161790555191015560055492680100000000000000008410156102755760209787956108656108729361083f8860017f6d49979ab8cc64e143edf7dfbdb779a93784a09dddcdbf68507d4d6725b7ba919a016005556116d8565b81549060031b908b821b915f19901b191617905560405196608088526080880191611843565b918583038b870152611843565b94604083015260608201528033940390a3604051908152f35b634e487b7160e01b5f52602160045260245ffd5b015190508e806106a8565b90601f19831691845f52815f20925f5b8181106108f557509084600195949392106108dd575b505050811b0190556107ca565b01515f1960f88460031b161c191690558d80806108d0565b929360206001819287860151815501950193016108ba565b015190505f806106a8565b90601f19831691845f52815f20925f5b818110610963575090846001959493921061094b575b505050811b019055610769565b01515f1960f88460031b161c191690555f808061093e565b92936020600181928786015181550195019301610928565b90601f19831691845f52815f20925f5b8181106109c657509084600195949392106109ae575b505050811b019055610714565b01515f1960f88460031b161c191690555f80806109a1565b9293602060018192878601518155019501930161098b565b90601f19831691845f52815f20925f5b818110610a295750908460019594939210610a11575b505050811b0190556106bf565b01515f1960f88460031b161c191690555f8080610a04565b929360206001819287860151815501950193016109ee565b60405162461bcd60e51b815260206004820152601a60248201527f436f6e646974696f6e732063616e6e6f7420626520656d7074790000000000006044820152606490fd5b60405162461bcd60e51b815260206004820152601760248201527f456e64206d7573742062652061667465722073746172740000000000000000006044820152606490fd5b60405162461bcd60e51b815260206004820152601760248201527f5374617274206d75737420626520696e206675747572650000000000000000006044820152606490fd5b60405162461bcd60e51b8152602060048201526014602482015273417265612063616e6e6f7420626520656d70747960601b6044820152606490fd5b60405162461bcd60e51b815260206004820152601460248201527342616e642063616e6e6f7420626520656d70747960601b6044820152606490fd5b60405162461bcd60e51b815260206004820152601d60248201527f4e6f7420612072656769737465726564204e4343206f70657261746f720000006044820152606490fd5b34610336576020366003190112610336576001600160a01b03610bee6113eb565b165f526003602052602060ff60405f2054166040519015158152f35b3461033657602036600319011261033657610c236113eb565b610c2b611863565b6001600160a01b03165f8181526003602052604090205460ff1615610c8457805f52600360205260405f2060ff1981541690557f80c0b871b97b595b16a7741c1b06fed0c6f6f558639f18ccbce50724325dc40d5f80a2005b60405162461bcd60e51b815260206004820152600e60248201526d139bdd081c9959da5cdd195c995960921b6044820152606490fd5b34610336575f366003190112610336575f546040516001600160a01b039091168152602090f35b3461033657602036600319011261033657610cfa6113eb565b6005546001600160a01b03909116905f805b828110610db85750610d1d9061173d565b915f905f5b838110610d3b5760405180610d378782611516565b0390f35b80610d476001926116d8565b90549060031b1c5f52600260205282828060a01b038360405f2001541614610d70575b01610d22565b610d79816116d8565b90549060031b1c5f526002602052610db260405f2094610da1610d9b82611704565b96611634565b610dab828a61178c565b528761178c565b50610d6a565b610dc1816116d8565b90549060031b1c5f5260026020528360018060a01b03600160405f2001541614610dee575b600101610d0c565b90610dfa600191611704565b919050610de6565b34610336575f366003190112610336576005545f805b828110610ec55750610e299061173d565b5f915f5b818110610e425760405180610d378582611516565b610e4b816116d8565b90549060031b1c5f52600260205260ff600860405f2001541690600382101561088b5760019115610e7d575b01610e2d565b610e86816116d8565b90549060031b1c5f526002602052610ebf60405f2095610eae610ea882611704565b97611634565b610eb8828861178c565b528561178c565b50610e77565b610ece816116d8565b90549060031b1c5f52600260205260ff600860405f20015416600381101561088b5715610efe575b600101610e18565b90610f0a600191611704565b919050610ef6565b34610336575f36600319011261033657610f2a611863565b5f80546001600160a01b0319811682556001600160a01b03167f8be0079c531659141344cd1fd0a4f28419497f9722a3daafe3b4186f6b6457e08280a3005b34610336576020366003190112610336576001600160a01b03610f8a6113eb565b165f526004602052610d37610fa160405f20611476565b604051918291602083526020830190611314565b3461033657602036600319011261033657600435801515806110b7575b610fdb906115ef565b5f81815260026020526040902060018101546001600160a01b0316330361107e5760080160ff815416600381101561088b5761104457805460ff1916600217905533907f8eee202422a36dce369e64c139babb7e6e1998d0a3e15bed9a3471d89b63d74e5f80a3005b60405162461bcd60e51b81526020600482015260126024820152714c697374696e67206e6f742061637469766560701b6044820152606490fd5b60405162461bcd60e51b81526020600482015260116024820152702737ba103634b9ba34b7339037bbb732b960791b6044820152606490fd5b50600154811115610fd2565b346103365760203660031901126103365760043580151580611145575b6110e9906115ef565b5f5260026020526110fc60405f20611634565b61010081015190600382101561088b57602091159081611136575b81611128575b506040519015158152f35b60c09150015142108261111d565b60a08101514210159150611117565b506001548111156110e0565b3461033657602036600319011261033657600435801515806112a3575b611177906115ef565b805f52600260205260405f2060018060a01b0360018201541633148015611290575b1561125a57600881019060ff825416600381101561088b57611228576006015442106111f057805460ff191660011790557f4df8589699376359278c405066850ad888c3113f536eda09576016b2779944165f80a2005b60405162461bcd60e51b815260206004820152601060248201526f15da5b991bddc81b9bdd08195b99195960821b6044820152606490fd5b60405162461bcd60e51b815260206004820152600a6024820152694e6f742061637469766560b01b6044820152606490fd5b60405162461bcd60e51b815260206004820152600e60248201526d139bdd08185d5d1a1bdc9a5cd95960921b6044820152606490fd5b505f546001600160a01b03163314611199565b5060015481111561116e565b34610336576020366003190112610336576004356112cb6115a2565b5080151580611308575b6112de906115ef565b5f526002602052610d376112f460405f20611634565b604051918291602083526020830190611345565b506001548111156112d5565b805180835260209291819084018484015e5f828201840152601f01601f1916010190565b90600382101561088b5752565b908151815260018060a01b036020830151166020820152610120806113ce6113a861139661138460408801516101406040890152610140880190611314565b60608801518782036060890152611314565b60808701518682036080880152611314565b60a086015160a086015260c086015160c086015260e086015185820360e0870152611314565b936113e3610100820151610100860190611338565b015191015290565b600435906001600160a01b038216820361033657565b90600182811c9216801561142f575b602083101461141b57565b634e487b7160e01b5f52602260045260245ffd5b91607f1691611410565b61014081019081106001600160401b0382111761027557604052565b90601f801991011681019081106001600160401b0382111761027557604052565b9060405191825f82549261148984611401565b80845293600181169081156114f457506001146114b0575b506114ae92500383611455565b565b90505f9291925260205f20905f915b8183106114d85750509060206114ae928201015f6114a1565b60209193508060019154838589010152019101909184926114bf565b9050602092506114ae94915060ff191682840152151560051b8201015f6114a1565b602081016020825282518091526040820191602060408360051b8301019401925f915b83831061154857505050505090565b9091929394602080611566600193603f198682030187528951611345565b97019301930191939290611539565b9181601f84011215610336578235916001600160401b038311610336576020838186019501011161033657565b604051906115af82611439565b5f6101208382815282602082015260606040820152606080820152606060808201528260a08201528260c0820152606060e0820152826101008201520152565b156115f657565b60405162461bcd60e51b8152602060048201526016602482015275131a5cdd1a5b99c8191bd95cc81b9bdd08195e1a5cdd60521b6044820152606490fd5b9060405161164181611439565b8254815260018301546001600160a01b0316602082015291829061166760028201611476565b604083015261167860038201611476565b606083015261168960048201611476565b6080830152600581015460a0830152600681015460c08301526116ae60078201611476565b60e083015260ff600882015416600381101561088b57610120916009916101008501520154910152565b6005548110156116f05760055f5260205f2001905f90565b634e487b7160e01b5f52603260045260245ffd5b5f1981146117125760010190565b634e487b7160e01b5f52601160045260245ffd5b6001600160401b0381116102755760051b60200190565b9061174782611726565b6117546040519182611455565b8281528092611765601f1991611726565b01905f5b82811061177557505050565b6020906117806115a2565b82828501015201611769565b80518210156116f05760209160051b010190565b9291926001600160401b03821161027557604051916117c9601f8201601f191660200184611455565b829481845281830111610336578281602093845f960137010152565b919091601f83116117f6575b505050565b81831161180257505050565b5f5260205f206020601f830160051c921061183b575b81601f9101920160051c03905f5b828110156117f1575f82820155600101611826565b5f9150611818565b908060209392818452848401375f828201840152601f01601f1916010190565b5f546001600160a01b0316330361187657565b63118cdaa760e01b5f523360045260245ffdfea2646970667358221220ade069587d81f5675661467906278b50b5e76436593b1e7cd84b12e5b4ef255e64736f6c63430008210033","linkReferences":{}},"methodIdentifiers":{"createListing(string,string,uint256,uint256,string)":"cc2ee0fc","deactivateListing(uint256)":"3b8d915f","expireListing(uint256)":"2cbb7c66","getActiveListings()":"87c35bc0","getListing(uint256)":"107a274a","getListingsByOperator(address)":"8b1dd34e","getTotalListings()":"fbf30c35","isAvailable(uint256)":"3a178d99","listings(uint256)":"de74e57b","operatorNames(address)":"6ca58ec8","owner()":"8da5cb5b","registerOperator(address,string)":"fce92894","registeredOperators(address)":"afebf403","removeOperator(address)":"ac8a584a","renounceOwnership()":"715018a6","transferOwnership(address)":"f2fde38b"},"id":22}